:020000021000EC
:1000B400130101FF9305000023248100232611006E
:1000C40013040500EF00503283A781F16384070015
:1000D400E780070013050400EFF0C0579307000002
:1000E40063880700372501001305C5EC6F00D04471
:1000F40067800000976101009381817113050000FE
:100104006304050073107501176501001305C561CB
:1001140017760100130606943306A64093050000E3
:10012400EF00501217150000130545C163080500C0
:1001340017250000130585D9EF001040EF00500784
:1001440003250100930541001316250013064600FC
:100154003306B600EF4090206FF09FF5130101FFC6
:100164002324810083C781F32326110063920702AD
:1001740093070000638A0700376502001305C5CEA4
:1001840097000000E700000093071000238CF1F2B1
:100194008320C10003248100130101016780000052
:1001A40093070000638C0700376502009385C1F351
:1001B4001305C5CE17030000670000006780000028
:1001C400130500006780000037660200B7250100B0
:1001D40037650200130606019385C59D13050502C4
:1001E4006F00C03483254500130101FF23248100DF
:1001F40023261100938741F5130405006384F50059
:10020400EF10807D832584009387C1FB6386F5000E
:1002140013050400EF10407C8325C400938741023A
:10022400638CF50013050400032481008320C100BE
:10023400130101016F10407A8320C100032481005F
:1002440013010101678000001305000067800000AE
:10025400130101FEB7070100232C81009387C71CFB
:10026400138441F5232E1100232A91002328210110
:10027400232631012324410123ACF1F0130680002D
:100284009307400093050000138501FB2326F40027
:100294002320040023220400232404002322040630
:1002A40023280400232A0400232C0400EF0080796F
:1002B400370A0100B709010037090100B70401003A
:1002C400B7070100130A4A5E938989641309096D0B
:1002D400938444739387970013068000930500006A
:1002E40013858101232AF4062320440323223403A3
:1002F4002324240323269402232E84002324040687
:1003040023260406232804062326040C232C04068F
:10031400232E040623200408EF00C072B70702004E
:10032400938727011387C1FB1385010813068000F7
:10033400930500002324440923263409232824098F
:10034400232A9408232EF40C2328040C232A040CB7
:10035400232C040C232A04122320040E2322040E2B
:100364002324040E2322E408EF00C06D9387410286
:100374002328440F232A340F232C240F232E940ED6
:100384008320C1012326F40E032481018324410127
:10039400032901018329C100032A810013010102F9
:1003A4006780000083A781F1130101FE232A9100D5
:1003B400232E1100232C810093040500638E070E65
:1003C40037680200130808019306F0FF83274800EA
:1003D4009387F7FF63C00708032488006F00C000F9
:1003E400130484066388D7060317C4009387F7FFB2
:1003F400E31807FEB707FFFF938717002326F400CF
:1004040023220406232004002324040023220400BE
:1004140023280400232A0400232C0400130680004C
:10042400930500001305C405EF00C06123280402EE
:10043400232A040223220404232404048320C10164
:1004440013050400032481018324410113010102E3
:1004540067800000032408006306040013080400F6
:100464006FF0DFF69305C01A1385040023260101FB
:10047400EF00504E0328C100130405006302050475
:10048400930740002322F5001305C5002320040030
:100494002324A4001306001A930500002326010157
:1004A400EF00405A0328C1009306F0FF2320880080
:1004B400130804006FF09FF1EFF09FD96FF05FF025
:1004C400232008009307C00023A0F4006FF01FF757
:1004D400832745036384070067800000B707010092
:1004E40003A781F19387871E232AF502E31607FEEB
:1004F4006FF01FD667800000678000003766020037
:10050400B7050100130606019385451C1305000079
:100514006F00C00137660200B7050100130606012B
:100524009385C524130500006F004000130101FDED
:1005340023202103232E3101232C4101232A51019D
:100544002328610123267101232611022324810219
:1005540023229102930A0600130B0500938B0500D6
:10056400130A0000930910001309F0FF83A44A0042
:100574009384F4FF63CA040203A48A008357C4006B
:1005840063FEF9008317E4009305040013050B00D0
:1005940063862701E7800B00336AAA009384F4FF83
:1005A40013048406E39C24FD83AA0A00E3900AFC56
:1005B4008320C1020324810283244102032901020E
:1005C4008329C101832A4101032B0101832BC1002B
:1005D40013050A00032A8101130101036780000047
:1005E400130101FF23248100138405008395E50092
:1005F40023261100EF00C02E634005028327040563
:100604008320C100B387A7002328F40403248100B6
:1006140013010101678000008357C40037F7FFFF0F
:100624001307F7FFB3F7E7008320C1002316F40094
:1006340003248100130101016780000013050000F9
:10064400678000008397C500130101FE1383060031
:10065400232E110093F60710138705009308060054
:100664001308050063980602B7F6FFFF9386F6FFAA
:100674008320C101B3F7D7008315E7002316F700E1
:1006840093060300138608001305080013010102F2
:100694006F00802B8395E5002324C100930620007E
:1006A40013060000232661002320E1002322A10079
:1006B400EF00801C032701000323C100832881006D
:1006C4008317C700032841006FF01FFA130101FFCD
:1006D40023248100138405008395E500232611005B
:1006E400EF0080191307F0FF8317C4006302E502CB
:1006F40037170000B3E7E7008320C1002328A404D0
:100704002316F40003248100130101016780000013
:1007140037F7FFFF3307A700B3F7E7008320C100D3
:100724002316F400032481001301010167800000F3
:100734008395E5006F004000130101FF232481002D
:10074400232291009304050013850500232611003C
:1007540023AE01F0EFE0106C9307F0FF630CF5009B
:100764008320C1000324810083244100130101017B
:100774006780000083A7C1F1E38407FE8320C100E2
:100784000324810023A0F400832441001301010108
:100794006780000083A7C1F0638EA70C83254504FE
:1007A400130101FE232A9100232E1100232C810022
:1007B40093040500638805042328210123263101BD
:1007C4001309000093090008B387250103A4070057
:1007D400630E04009305040003240400138504003D
:1007E400EF000069E31804FE83A5440413094900DB
:1007F400E31C39FD13850400EF0080670329010120
:100804008329C10083A5840363860500138504003E
:10081400EF00006603A40404630C040093050400C1
:100824000324040013850400EF008064E31804FE2D
:1008340083A5C4046386050013850400EF004063A8
:1008440083A74403638E0700032481018320C1012D
:10085400138504008324410113010102678007000A
:100864008320C10103248101832441011301010276
:100874006780000067800000130101FF9387050073
:10088400232481002322910093050600930405008C
:1008940013860600138507002326110023AE01F0FA
:1008A400EFE0106B9307F0FF630CF5008320C100A9
:1008B40003248100832441001301010167800000A7
:1008C40083A7C1F1E38407FE8320C10003248100D0
:1008D40023A0F40083244100130101016780000078
:1008E400130101FF93870500232481002322910033
:1008F400930506009304050013860600138507007C
:100904002326110023AE01F0EFE090689307F0FF77
:10091400630CF5008320C10003248100832441007B
:10092400130101016780000083A7C1F1E38407FE7E
:100934008320C1000324810023A0F4008324410008
:100944001301010167800000130101FF9387050073
:1009540023248100232291009305060093040500BB
:1009640013860600138507002326110023AE01F029
:10097400EFE0906D9307F0FF630CF5008320C10056
:1009840003248100832441001301010167800000D6
:1009940083A7C1F1E38407FE8320C10003248100FF
:1009A40023A0F400832441001301010167800000A7
:1009B400130101FF23248100232021013764020055
:1009C400376902002326110023229100130909002C
:1009D400130404006302890233098940135929402E
:1009E4009304000083270400938414001304440038
:1009F400E7800700E3E824FF376902003764020058
:100A0400130989001304040063028902330989402D
:100A1400135929409304000083270400938414008D
:100A240013044400E7800700E3E824FF8320C100A7
:100A340003248100832441000329010013010101DF
:100A4400678000009307F0019306050063F4C71064
:100A540013F73600630607029702000013132700FA
:100A6400B382620013830000E780C217930003007F
:100A74001307C7FF3306E600B386E64063FCC70CE2
:100A8400639405006F00800193F5F50F9392850040
:100A9400B3E5550093920501B3E555009372C6FF83
:100AA4003383560093F2C207638E0200B3025040B0
:100AB40093820208B386564097030000B383530021
:100AC4006780C30023A0B60023A2B60023A4B60007
:100AD40023A6B60023A8B60023AAB60023ACB6000A
:100AE40023AEB60023A0B60223A2B60223A4B60204
:100AF40023A6B60223A8B60223AAB60223ACB602E2
:100B040023AEB60223A0B60423A2B60423A4B604DB
:100B140023A6B60423A8B60423AAB60423ACB604B9
:100B240023AEB60423A0B60623A2B60623A4B606B3
:100B340023A6B60623A8B60623AAB60623ACB60691
:100B440023AEB60693860608E3EE66F61376360001
:100B5400630A0608970200003386C740131626006E
:100B6400B382C20067804201238FB600A38EB60011
:100B7400238EB600A38DB600238DB600A38CB600D9
:100B8400238CB600A38BB600238BB600A38AB600D1
:100B9400238AB600A389B6002389B600A388B600C9
:100BA4002388B600A387B6002387B600A386B600C1
:100BB4002386B600A385B6002385B600A384B600B9
:100BC4002384B600A383B6002383B600A382B600B1
:100BD4002382B600A381B6002381B600A380B600A9
:100BE4002380B60067800000130101FD232C41011E
:100BF4002320210303A901F2232611026308090A11
:100C0400232E3101232A5101232861012326710156
:100C1400232481022322910223248101130B050042
:100C2400938B05009309F0FF930A10008324490075
:100C34001384F4FF634E040493942400B3049900D2
:100C440063900B088327490083A644009387F7FF2A
:100C54006384870C23A20400638606028327891811
:100C640033978A00032C4900B377F700639E070685
:100C7400E78006000327490083A701F26318870968
:100C8400639627091304F4FF9384C4FFE31A34FB27
:100C940003248102832441028329C101832A41015F
:100CA400032B0101832BC100032C81008320C1028B
:100CB40003290102032A8101130101036780000053
:100CC40083A744101307F4FFE38EFBF61304E4FF39
:100CD400E30037FD83A7041063847705938484FFBE
:100CE400E31034FF6FF0DFFA8327C91883A54408A3
:100CF4003377F700631C070213050B00E780060037
:100D04000327490083A701F2E30C87F7E38207F87E
:100D1400138907006FF09FF1232289006FF0DFF33E
:100D24009384C4FF130407006FF0DFF113850500FB
:100D3400E78006006FF01FF493050500930600009A
:100D440013060000130500006F10C01D130101FEFF
:100D54002328210137690200232C8100232A9100D2
:100D64002326310113840500232E11009309050065
:100D740013090914EF00D0458327890037170000B1
:100D840083A4470093F4C4FF9387047F9387F77F7A
:100D9400338487401354C4001304F4FF1314C400B1
:100DA400634EE4009305000013850900EF10000C66
:100DB40083278900B38797006306F502138509002A
:100DC400EF0050418320C1010324810183244101A8
:100DD400032901018329C100130500001301010245
:100DE40067800000B305804013850900EF100008F8
:100DF4009307F0FF6304F5048326890083A7C108E1
:100E0400B384844093E4140013850900B3878740B6
:100E140023A2960023A6F108EF00D03B8320C10152
:100E24000324810183244101032901018329C10091
:100E340013051000130101026780000093050000F0
:100E440013850900EF108002032789009306F00040
:100E5400B307E540E3D4F6F603A601F193E71700E0
:100E64003305C5402322F70023A6A1086FF01FF520
:100E740063840512130101FE232C81002326B10093
:100E840013040500232E1100EF0090348325C100C4
:100E9400376802001308081403A5C5FF138785FFEC
:100EA400832888009377E5FF3306F70083264600FE
:100EB4001373150093F6C6FF6388C8182322D6005F
:100EC400B308D60083A8480093F81800631A0308EF
:100ED40003A385FFB7650200938585143307674034
:100EE40003258700B3876700630AB5120323C7008D
:100EF400232665002324A300638C081893E61700B7
:100F04002322D7002320F6009306F01F63E2F60A9B
:100F140093F687FF9386860083254800B306D8009E
:100F240003A6060013D5570093071000B397A70034
:100F3400B3E7B700938586FF2324C7002326B700B1
:100F44002322F80023A0E6002326E600130504006C
:100F5400032481018320C101130101026F00902742
:100F6400639E0802B7650200B387D7009385851492
:100F74008326860093E817003305F7006380B616CE
:100F84000326C60023A6C6002324D6002322170165
:100F94002320F5006FF05FF76780000013651500EC
:100FA40023AEA5FE2320F6009306F01FE3F2F6F627
:100FB40093D69700130640006360D60E93D667005D
:100FC400938596039395350013868603B305B8007D
:100FD40083A60500938585FF6398D5006F00C01133
:100FE40083A686006388D50003A646001376C6FF51
:100FF400E3E8C7FE83A5C6002326B7002324D70051
:1010040013050400032481018320C10123A4E50006
:1010140023A6E600130101026F00D01B6390080AA7
:101024008325C60003268600B386F60093E71600E0
:101034002326B60023A4C5002322F7003307D700D4
:101044002320D7006FF09FF0B386D700631003020C
:1010540083A785FF3307F74003268700B386F6008E
:101064008327C7002326F60023A4C70013E616002F
:1010740083A741F12322C7002324E800E3E8F6EC28
:1010840083A5C1F213050400EFF05FCC6FF01FECF1
:10109400B387D7006FF0DFED130640016378D60203
:1010A400130640056368D60693D6C7009385F606F3
:1010B400939535001386E6066FF05FF193E617000B
:1010C4002322D7002320F6006FF05FE89385C6053E
:1010D400939535001386B6056FF05FEF232AE80079
:1010E4002328E8002326B7002324B700232217016E
:1010F4002320F5006FF09FE5032548001356264092
:1011040093071000B397C700B3E7A7002322F800A2
:101114006FF09FEE13064015636CD60093D6F7006C
:101124009385860793953500138676076FF01FEA3B
:10113400130540559305803F1306E007E368D5E89F
:1011440093D627019385D607939535001386C60752
:101154006FF0DFE7130101FC232C8102232E11021F
:101164009387B5001307600113040500636EF70845
:101174009306000163ECB606EF00900593060001A8
:10118400130780019308200037680200130808142D
:101194003307E80083274700130687FF638EC7469B
:1011A40003A7470003A6C70083A587001377C7FFDB
:1011B4003387E7008326470023A6C5002326F100D2
:1011C4002324B60093E61600130504002322D70057
:1011D400EF0050008327C1008320C103032481034F
:1011E4001385870013010104678000009307C00082
:1011F4002320F400130500008320C103032481038A
:10120400130101046780000093F687FFB3B5B600AD
:1012140093D7F701B3E5F500E39A05FC2326D10043
:10122400EF00007B8326C1009307701F63F4D74E41
:1012340093D89600638C08169307400063E617451D
:1012440093D86600138E980313153E009388880381
:1012540037680200130808143305A80083274500E3
:10126400130585FF6306F5361303F0006F00400194
:1012740083A5C70063520636630CB5349387050013
:1012840003A747001377C7FF3306D740E352C3FED3
:1012940083270801376E0200130E8E146386C7334A
:1012A40003A547001306F0001375C5FF3307D540A7
:1012B400634CE648232AC8012328C8016352074621
:1012C4001307F01F032348006360A736137785FFD5
:1012D400130787003307E8008325070013555500DB
:1012E400130610003316A6003363C300130687FFEA
:1012F40023A4B70023A6C700232268002320F700F5
:1013040023A6F50093D72840130510003315F500E4
:101314006366A30AB3776500639407021315150087
:1013240093F8C8FFB377650093884800639A070071
:1013340013151500B377650093884800E38A07FE08
:10134400930EF000139F3800330FE80113030F00CE
:101354000327C300938F0800630AE334032647007E
:10136400930707000327C7001376C6FFB305D640CB
:1013740063CABE34E3C205FE3386C7008326460033
:1013840083A587001305040093E616002322D600E4
:1013940023A6E5002324B7002326F100EF00806391
:1013A4008327C100138587006FF01FE51305002014
:1013B400130E00049308F0036FF09FE9832788005D
:1013C40003A747009378C7FF3387D84093250701C5
:1013D40033B6D8003366B600630A061A03A6C1F210
:1013E40083A501F11307F0FF3386C6006382E54449
:1013F400371700001307F7003306E60037F7FFFF3F
:101404003376E60093050600130504002328010142
:101414002326D100232EF100232C1101232AC100FD
:10142400EF00D0249305F0FF8326C10003280101B7
:1014340013070500630CB512832881018327C101BA
:101444000326410133851701636CA734138EC10849
:1014540083250E00B305B6002320BE00630EE548C5
:1014640003AF01F1930EF0FF6306DF4B3305A74092
:10147400B305B5002320BE0013737700630A033C51
:10148400137787FFB715000013078700938585003E
:101494003306C700B3856540B385C54093954501C0
:1014A40093D5450113050400232401032322C1031A
:1014B4002320D102232EF100232C1101232AE10041
:1014C400232861002326C1002326B102EF00101A4D
:1014D400930EF0FF0326C1000323010103274101FA
:1014E400832881018327C10183260102032E41023F
:1014F400032881026306D5498325C1023305E540EB
:101504003306B50003250E002324E80013661600F5
:10151400B385A5002322C7002320BE00638C0703E4
:101524001305F000637C152F03A64700138748FFBB
:10153400137787FF137616003366E60023A2C700ED
:10154400930850003386E700232216012324160152
:101554006362E54003A781F26374B70023A4B1F288
:1015640003A741F26374B70023A2B1F28327880072
:1015740003A647001376C6FF3307D6409325070119
:101584003336D6003366B600631E062813E616000B
:1015940023A2C700B386D7002326F10013671700E0
:1015A4002324D8001305040023A2E600EF008042A0
:1015B4008327C1008320C10303248103138587008B
:1015C4001301010467800000032348006FF09FD3D8
:1015D40093080E006FF0DFCB03A687003387E70084
:1015E400832647002326B6002326F10093E616003F
:1015F40023A4C500130504002322D700EF00803D77
:101604008327C1008320C10303248103138587003A
:1016140013010104678000008327C7009388280012
:10162400E308F7C66FF0DFB71357950013064000C1
:10163400637EE614130640016364E6289305C70538
:10164400939535001306B705B305B80003A7050045
:10165400938585FF6398E5006F00001E03278700CC
:101664006388E500032647001376C6FFE368C5FEDA
:101674008325C70023A6B70023A4E70023A4F5000D
:101684002326F7006FF01FC89307400163F6171372
:101694009307400563E4172593D8C600138EF80614
:1016A40013153E009388E8066FF09FBA938F1F00CE
:1016B40093F73F0013038300638E07100327C300CF
:1016C4006FF09FC903A5870093E8160023A21701B2
:1016D4002326E5002324A700B386D700232AD800B5
:1016E4002328D80013E715003386C70023A6C601B4
:1016F40023A4C60123A2E600130504002320B60098
:101704002326F100EF00002D8327C10013858700F5
:101714006FF09FAE93D83600138786006FF0DFA674
:10172400B386A70003A746002326F100130504008F
:101734001367170023A2E600EF00C0298327C10026
:10174400138587006FF05FAB13E6160023A2C70072
:10175400B386D700232AD8002328D800936517001E
:101764003386A70023A6C60123A4C60123A2B6007C
:10177400130504002320E6002326F100EF00802552
:101784008327C100138587006FF01FA713576500D7
:101794009305970393953500130687036FF0DFEAEB
:1017A400E39607DD138EC10883250E00B305B6004A
:1017B4002320BE006FF0DFCA138EC80513153E0048
:1017C4009388B8056FF0DFA883278F009388F8FF0C
:1017D400639CE71F93F73800130F8FFFE39607FE10
:1017E400032748009347F5FFB3F7E7002322F800E7
:1017F40013151500E3E4A7BCE30205BC3377F50039
:10180400631A0700131515003377F500938F4F0003
:10181400E30A07FE93880F006FF0DFB2930710000E
:101824002322F70013050400EF00C01A6FF09F9CF9
:10183400130606016FF01FBD135626401305100052
:101844003316C5003363C300232268006FF09FE2A0
:10185400B305C700B305B0409395450193D5450141
:1018640013050400232201032320C103232ED100E6
:10187400232CF100232A11012328C1002326E1008F
:101884002324B102EF00805E1303F0FF0327C1009D
:101894000326010183284101832781018326C10195
:1018A400032E01020328410293050000E30C65C4E2
:1018B400832581023305E5403306B5006FF09FC4EC
:1018C40013064005636CE6041357C5009305F70639
:1018D400939535001306E7066FF01FD7930740155D
:1018E40063EC170593D8F600138E880713153E0092
:1018F400938878076FF0DF95931E4501E3920EB647
:1019040003278800B387C80093E717002322F70052
:101914006FF05FC423A8E1F06FF01FB61306401503
:10192400636AE6061357F500930587079395350018
:10193400130677076FF05FD19307405563EE1707DF
:1019440093D82601138ED80713153E009388C80731
:101954006FF01F909385870013050400232A01016B
:101964002328C1012326D100EFF08FD0032E0101DB
:10197400032841018326C10083250E006FF09FBD1B
:10198400130383FF330666003306E6409305000025
:101994006FF05FB7930E40559305803F1306E00741
:1019A400E3E4EECA135725019305D7079395350051
:1019B4001306C7076FF05FC91305803F130EF007C6
:1019C4009308E0076FF0DF88832748006FF05FE239
:1019D4006780000067800000130101FF23261100C7
:1019E400232021016380050C2324810023229100FC
:1019F400138405009304050063060500832745034B
:101A04006384070EEFE01FAF8317C40063860708E3
:101A14009305040013850400EF00400E8327C402DD
:101A240013090500638A07008325C4011385040094
:101A3400E78007006340050A8357C40093F707084B
:101A4400639E070683250403638C0500930704043F
:101A54006386F50013850400EFF08FC12328040288
:101A6400832544046388050013850400EFF04FC008
:101A74002322040423160400EFE01FA88320C100DE
:101A84000324810083244100130509000329010074
:101A94001301010167800000EFE01FA60324810009
:101AA400832441008320C1001309000013050900A9
:101AB400032901001301010167800000832504014B
:101AC40013850400EFF0CFBA83250403E39005F8EF
:101AD4006FF01FF98357C4001309F0FF93F7070849
:101AE400E38207F66FF09FFDEFE09F9E6FF09FF19A
:101AF4009305050003A5C1F06FF01FEE0397C50021
:101B0400130101FE232C810023263101232E110011
:101B140093778700138405009309050063920712E5
:101B2400B71700009387078083A64500B367F700C3
:101B34002396F500635CD018032884026306080E1C
:101B4400232A91009316370183A4090023A00900D6
:101B540063CA06188325C401930610001306000007
:101B640013850900E70008009307F0FF630EF51AD8
:101B74008317C4000328840293F74700638E070089
:101B840003274400832704033305E54063860700E5
:101B94008327C4033305F5408325C40113060500D8
:101BA4009306000013850900E70008009307F0FF7F
:101BB4000317C400631CF51283A609009307D00120
:101BC40063E4D71AB707402093871700B3D7D70029
:101BD40093F71700638A071883260401B7F7FFFFFA
:101BE4009387F77FB377F7002316F40023220400CA
:101BF4002320D4009317370163D6070083A7090075
:101C0400638807108325040323A09900638A0510C1
:101C1400930704046386F50013850900EFF04FA5CC
:101C24008324410123280402130500008320C101F9
:101C3400032481018329C10013010102678000008C
:101C44002328210103A90501630A0908232A910015
:101C540083A405001377370023A02501B38424410E
:101C6400930700006314070083A745012324F400AD
:101C7400634890006F0040063309A900635E900436
:101C8400832744028325C4019386040013060900B4
:101C940013850900E7800700B384A440E34EA0FC49
:101CA4008357C4008320C1018324410193E70704BF
:101CB4002316F40003248101032901018329C100AF
:101CC4001305F0FF130101026780000083A6C5031A
:101CD400E344D0E66FF05FF5832441010329010159
:101CE4006FF09FF4032504056FF01FE983260401B8
:101CF400B7F7FFFF9387F77FB377F7002316F40056
:101D0400232204002320D40093173701E3DC07EED9
:101D1400832504032328A40423A09900E39A05EE51
:101D2400832441016FF05FF083A70900E38207E495
:101D3400138737FE9387A7FE1337170093B717004F
:101D4400B367F7006388070023A099008324410147
:101D54006FF09FED8357C4008324410193E7070488
:101D64002316F4006FF09FEC1367070483244101EA
:101D74002316E4006FF09FEB93070500630605004C
:101D840003274503630E07000397C5006316070086
:101D94001305000067800000138507006FF01FD64D
:101DA400130101FE2326B100232E11002324A100D8
:101DB400EFE00FF28325C100832781000397C5005C
:101DC400630A07008320C101138507001301010280
:101DD4006FF0DFD28320C10113050000130101025B
:101DE40067800000630E05049305050003A5C1F098
:101DF4006306050083274503638C07008397C500AA
:101E04006396070013050000678000006FF01FCF82
:101E1400130101FE2326B1002324A100232E110067
:101E2400EFE00FEB8325C100032581008397C500F4
:101E3400638607028320C101130101026FF01FCCE6
:101E440037660200B7250100376502001306060154
:101E54009385C5D7130505026FE04FED8320C101BB
:101E6400130500001301010267800000130101FF44
:101E74002324810023229100930405001385050087
:101E84002326110023AE01F0EFD090149307F0FF46
:101E9400630CF5008320C1000324810083244100E6
:101EA400130101016780000083A7C1F1E38407FEE9
:101EB4008320C1000324810023A0F4008324410073
:101EC4001301010167800000130101FF2324810035
:101ED400B7670200376402009387C70013048400C5
:101EE400B3878740232291002326110093D42740EF
:101EF400638004021304C4FF3304F4008327040042
:101F04009384F4FF1304C4FFE7800700E39804FEFE
:101F14008320C100032481008324410013010101B3
:101F24006780000083A701F26380070603A74700C8
:101F34001308F0016346E80413182700630605023A
:101F4400338307012324C30883A8871813061000CA
:101F54003316E600B3E8C80023A417192324D310CA
:101F6400930620006308D5021307170023A2E70095
:101F7400B387070123A4B70013050000678000009E
:101F84001305F0FF678000009387410B23A0F1F253
:101F94006FF0DFF983A6C7181307170023A2E70021
:101FA400B3E6C60023A6D718B387070123A4B70056
:101FB4001305000067800000130101FD23261102B0
:101FC400232481021304010393070500A30FF4FCE7
:101FD400930700012326F4FE8327C4FE0347F4FD80
:101FE4002380E700130000008320C1020324810240
:101FF4001301010367800000130101FD2326110270
:102004002324810213040103232EA4FC232604FEAB
:102014006F0080028327C4FE0327C4FDB307F700C3
:1020240083C7070013850700EFF01FF98327C4FE59
:10203400938717002326F4FE8327C4FE0327C4FDD9
:10204400B307F70083C70700E39607FC13000000FB
:10205400130000008320C102032481021301010341
:1020640067800000130101FE232E1100232C810040
:1020740013040102930740012326F4FE8327C4FEC0
:1020840083C70700A305F4FE8347B4FEE38807FE75
:102094008347B4FE138507008320C1010324810113
:1020A4001301010267800000130101FD23261102C0
:1020B400232481022322910213040103232EA4FC6E
:1020C400232604FE8327C4FE0327C4FDB304F700BC
:1020D400EFF05FF9930705002380F4008327C4FE23
:1020E4000327C4FDB307F70003C707009307A00045
:1020F400630CF7008327C4FE0327C4FDB307F7006E
:1021040083C70700639E07008327C4FE93871700D5
:102114000327C4FDB307F700238007006F004001C5
:102124008327C4FE938717002326F4FE6FF09FF9DC
:102134008327C4FE138507008320C1020324810280
:10214400832441021301010367800000130101810C
:102154002326117E2324817E2322917E1304017F72
:10216400130101FCB7F7FFFF130704FFB307F700E0
:1021740023A6A77EB7F7FFFF130704FFB307F700F3
:1021840023A4B77EB7F7FFFF130704FFB307F700D5
:1021940023A2C77EB7F7FFFF130704FFB307F700B7
:1021A400372700001307077123ACE77E232404BEFE
:1021B400B7F7FFFF130704FFB307F7003727000043
:1021C4001307077123AEE77E232604BEB7F7FFFF8C
:1021D400130704FF3307F700B7170000B307F7002E
:1021E400372700001307077123A0E780232804BEC4
:1021F400B7F7FFFF130704FF3307F700B717000013
:10220400B307F700372700001307077123A2E780FD
:10221400232A04BEB7F7FFFF130704FF3307F700B1
:10222400B7170000B307F70037270000130707713B
:1022340023A4E780232C04BEB7F7FFFF130704FF92
:102244003307F700B7170000B307F700372700007C
:102254001307077123A6E780232E04BEB7F7FFFFF9
:10226400130704FF3307F700B7170000B307F7009D
:10227400372700001307077123A8E780232004C031
:10228400B7F7FFFF130704FF3307F700B717000082
:10229400B307F700372700001307077123AAE78065
:1022A400232204C0B7F7FFFF130704FF3307F70027
:1022B400B7170000B307F7003727000013070771AB
:1022C40023ACE780232404C0B7F7FFFF130704FF00
:1022D4003307F700B7170000B307F70037270000EC
:1022E4001307077123AEE780232604C0B7F7FFFF67
:1022F400130704FF3307F700B7170000B307F7000D
:10230400372700001307077123A0E782232804C09E
:10231400B7F7FFFF130704FF3307F700B7170000F1
:10232400B307F700372700001307077123A2E782DA
:10233400232A04C0B7F7FFFF130704FF3307F7008E
:10234400B7170000B307F70037270000130707711A
:1023540023A4E782232C04C0B7F7FFFF130704FF6D
:102364003307F700B7170000B307F700372700005B
:102374001307077123A6E782232E04C0B7F7FFFFD4
:10238400130704FF3307F700B7170000B307F7007C
:10239400372700001307077123A8E782232004C20C
:1023A400B7F7FFFF130704FF3307F700B717000061
:1023B400B307F700372700001307077123AAE78242
:1023C400232204C2B7F7FFFF130704FF3307F70004
:1023D400B7170000B307F70037270000130707718A
:1023E40023ACE782232404C2B7F7FFFF130704FFDB
:1023F4003307F700B7170000B307F70037270000CB
:102404001307674123AEE782B7170000938727EFCE
:102414002326F4C2B7F7FFFF130704FF3307F700BF
:10242400B7170000B307F700372700001307F7B901
:1024340023A0E784B72700009387F7B92328F4C2C1
:10244400B7F7FFFF130704FF3307F700B7170000C0
:10245400B307F70037170000130727EF23A2E78419
:10246400B727000093876741232AF4C2B7F7FFFF19
:10247400130704FF3307F700B7170000B307F7008B
:1024840023A40784B727000093870771232CF4C281
:10249400B7F7FFFF130704FF3307F700B717000070
:1024A400B307F70037F7FFFF1307E71023A6E78406
:1024B400B727000093876741232EF4C2B7F7FFFFC5
:1024C400130704FF3307F700B7170000B307F7003B
:1024D40037E7FFFF1307174623A8E784B727000051
:1024E4009387F7B92320F4C4B7F7FFFF130704FF5A
:1024F4003307F700B7170000B307F70037E7FFFF0C
:102504001307A7BE23AAE784B7170000938727EF12
:102514002322F4C4B7F7FFFF130704FF3307F700C0
:10252400B7170000B307F70037E7FFFF1307078F5C
:1025340023ACE784232404C4B7F7FFFF130704FF85
:102544003307F700B7170000B307F70037E7FFFFBB
:102554001307A7BE23AEE784B7F7FFFF9387E710FF
:102564002326F4C4B7F7FFFF130704FF3307F7006C
:10257400B7170000B307F70037E7FFFF1307174645
:1025840023A0E786B7E7FFFF938717462328F4C401
:10259400B7F7FFFF130704FF3307F700B71700006F
:1025A400B307F70037F7FFFF1307E71023A2E78607
:1025B400B7E7FFFF9387A7BE232AF4C4B7F7FFFF4B
:1025C400130704FF3307F700B7170000B307F7003A
:1025D40023A40786B7E7FFFF9387078F232CF4C450
:1025E400B7F7FFFF130704FF3307F700B71700001F
:1025F400B307F70037170000130727EF23A6E78672
:10260400B7E7FFFF9387A7BE232EF4C4B7F7FFFFF6
:10261400130704FF3307F700B7170000B307F700E9
:10262400372700001307F7B923A8E786B7E7FFFFAA
:10263400938717462320F4C6B7F7FFFF130704FF59
:102644003307F700B7170000B307F7003727000078
:102654001307674123AAE786B7F7FFFF9387E710BD
:102664002322F4C6B7F7FFFF130704FF3307F7006D
:10267400B7170000B307F7003727000013070771E7
:1026840023ACE786232404C6B7F7FFFF130704FF30
:102694003307F700B7170000B307F7003727000028
:1026A4001307F7B923AEE786B72700009387F7B976
:1026B4002326F4C6B7F7FFFF130704FF3307F70019
:1026C400B7170000B307F70023A00788B727000057
:1026D400938707712328F4C6B7F7FFFF130704FF96
:1026E4003307F700B7170000B307F70037E7FFFF1A
:1026F4001307174623A2E788B72700009387F7B983
:10270400232AF4C6B7F7FFFF130704FF3307F700C4
:10271400B7170000B307F70037E7FFFF1307078F6A
:1027240023A4E788232C04C6B7F7FFFF130704FF8D
:102734003307F700B7170000B307F70037E7FFFFC9
:102744001307174623A6E788B7E7FFFF93871746C3
:10275400232EF4C6B7F7FFFF130704FF3307F70070
:10276400B7170000B307F70023A80788B7E7FFFFF0
:102774009387078F2320F4C8B7F7FFFF130704FFDD
:102784003307F700B7170000B307F7003727000037
:102794001307F7B923AAE788B7E7FFFF938717461C
:1027A4002322F4C8B7F7FFFF130704FF3307F7002A
:1027B400B7170000B307F7003727000013070771A6
:1027C40023ACE788232404C8B7F7FFFF130704FFEB
:1027D4003307F700B7170000B307F70037270000E7
:1027E4001307F7B923AEE788B72700009387F7B933
:1027F4002326F4C8B7F7FFFF130704FF3307F700D6
:10280400B7170000B307F70023A0078AB727000013
:10281400938707712328F4C8B7F7FFFF130704FF52
:102824003307F700B7170000B307F70037E7FFFFD8
:102834001307174623A2E78AB72700009387F7B93F
:10284400232AF4C8B7F7FFFF130704FF3307F70081
:10285400B7170000B307F70037E7FFFF1307078F29
:1028640023A4E78A232C04C8B7F7FFFF130704FF48
:102874003307F700B7170000B307F70037E7FFFF88
:102884001307174623A6E78AB7E7FFFF9387174680
:10289400232EF4C8B7F7FFFF130704FF3307F7002D
:1028A400B7170000B307F70023A8078AB7E7FFFFAD
:1028B4009387078F2320F4CAB7F7FFFF130704FF9A
:1028C4003307F700B7170000B307F70037270000F6
:1028D4001307F7B923AAE78AB7E7FFFF93871746D9
:1028E4002322F4CAB7F7FFFF130704FF3307F700E7
:1028F400B7170000B307F700372700001307077165
:1029040023ACE78A232404CAB7F7FFFF130704FFA5
:102914003307F700B7170000B307F70037170000B5
:10292400130727EF23AEE78AB72700009387674191
:102934002326F4CAB7F7FFFF130704FF3307F70092
:10294400B7170000B307F70037E7FFFF1307174671
:1029540023A0E78CB72700009387F7B92328F4CA8C
:10296400B7F7FFFF130704FF3307F700B71700009B
:10297400B307F70037E7FFFF1307A7BE23A2E78CCF
:10298400B7F7FFFF9387E710232AF4CAB7F7FFFFCF
:10299400130704FF3307F700B7170000B307F70066
:1029A40023A4078CB7E7FFFF9387078F232CF4CA70
:1029B400B7F7FFFF130704FF3307F700B71700004B
:1029C400B307F700372700001307674123A6E78CF6
:1029D400B7F7FFFF9387E710232EF4CAB7F7FFFF7B
:1029E400130704FF3307F700B7170000B307F70016
:1029F400372700001307F7B923A8E78CB72700008F
:102A04009387F7B92320F4CCB7F7FFFF130704FF2C
:102A14003307F700B7170000B307F70037F7FFFFD6
:102A24001307E71023AAE78CB727000093876741B1
:102A34002322F4CCB7F7FFFF130704FF3307F70093
:102A4400B7170000B307F70037E7FFFF1307078F37
:102A540023ACE78C232404CCB7F7FFFF130704FF50
:102A64003307F700B7170000B307F70037F7FFFF86
:102A74001307E71023AEE78CB7E7FFFF9387A7BEE2
:102A84002326F4CCB7F7FFFF130704FF3307F7003F
:102A9400B7170000B307F700372700001307F7B98B
:102AA40023A0E78EB7E7FFFF938717462328F4CCCC
:102AB400B7F7FFFF130704FF3307F700B71700004A
:102AC400B307F700372700001307674123A2E78EF7
:102AD400B7170000938727EF232AF4CCB7F7FFFF3B
:102AE400130704FF3307F700B7170000B307F70015
:102AF40023A4078EB727000093870771232CF4CCF7
:102B0400B7F7FFFF130704FF3307F700B7170000F9
:102B1400B307F70037E7FFFF1307A7BE23A6E78E27
:102B2400B7170000938727EF232EF4CCB7F7FFFFE6
:102B3400130704FF3307F700B7170000B307F700C4
:102B440037E7FFFF1307174623A8E78EB7E7FFFF12
:102B5400938717462320F4CEB7F7FFFF130704FF2C
:102B64003307F700B7170000B307F7003717000063
:102B7400130727EF23AAE78EB7E7FFFF9387A7BEC4
:102B84002322F4CEB7F7FFFF130704FF3307F70040
:102B9400B7170000B307F7003727000013070771C2
:102BA40023ACE78E232404CEB7F7FFFF130704FFFB
:102BB4003307F700B7170000B307F70023AE078EFB
:102BC400B7270000938707712326F4CEB7F7FFFFDA
:102BD400130704FF3307F700B7170000B307F70024
:102BE40037E7FFFF1307078F23A0E790232804CEBE
:102BF400B7F7FFFF130704FF3307F700B717000009
:102C0400B307F70023A20790B7E7FFFF9387078F67
:102C1400232AF4CEB7F7FFFF130704FF3307F700A7
:102C2400B7170000B307F700372700001307077131
:102C340023A4E790232C04CEB7F7FFFF130704FF68
:102C44003307F700B7170000B307F70023A6079070
:102C5400B727000093870771232EF4CEB7F7FFFF41
:102C6400130704FF3307F700B7170000B307F70093
:102C740037E7FFFF1307078F23A8E790232004D02B
:102C8400B7F7FFFF130704FF3307F700B717000078
:102C9400B307F70023AA0790B7E7FFFF9387078FCF
:102CA4002322F4D0B7F7FFFF130704FF3307F7001D
:102CB400B7170000B307F7003727000013070771A1
:102CC40023ACE790232404D0B7F7FFFF130704FFD6
:102CD4003307F700B7170000B307F70023AE0790D8
:102CE400B7270000938707712326F4D0B7F7FFFFB7
:102CF400130704FF3307F700B7170000B307F70003
:102D040037E7FFFF1307078F23A0E792232804D098
:102D1400B7F7FFFF130704FF3307F700B7170000E7
:102D2400B307F70023A20792B7E7FFFF9387078F44
:102D3400232AF4D0B7F7FFFF130704FF3307F70084
:102D4400B7170000B307F700372700001307077110
:102D540023A4E792232C04D0B7F7FFFF130704FF43
:102D64003307F700B7170000B307F70023A607924D
:102D7400B727000093870771232EF4D0B7F7FFFF1E
:102D8400130704FF3307F700B7170000B307F70072
:102D940037E7FFFF1307078F23A8E792232004D206
:102DA400B7F7FFFF130704FF3307F700B717000057
:102DB400B307F70023AA0792B7E7FFFF9387078FAC
:102DC4002322F4D2B7F7FFFF130704FF3307F700FA
:102DD400B7170000B307F700372700001307077180
:102DE40023ACE792232404D2B7F7FFFF130704FFB1
:102DF4003307F700B7170000B307F70037F7FFFFF3
:102E04001307E71023AEE792B727000093876741C3
:102E14002326F4D2B7F7FFFF130704FF3307F700A5
:102E2400B7170000B307F70037E7FFFF130717468C
:102E340023A0E794B7E7FFFF938717462328F4D22C
:102E4400B7F7FFFF130704FF3307F700B7170000B6
:102E5400B307F700372700001307674123A2E7945D
:102E6400B7F7FFFF9387E710232AF4D2B7F7FFFFE2
:102E7400130704FF3307F700B7170000B307F70081
:102E840023A40794B727000093870771232CF4D257
:102E9400B7F7FFFF130704FF3307F700B717000066
:102EA400B307F70037E7FFFF1307A7BE23A6E7948E
:102EB400B7F7FFFF9387E710232EF4D2B7F7FFFF8E
:102EC400130704FF3307F700B7170000B307F70031
:102ED400372700001307F7B923A8E794B7E7FFFFE4
:102EE400938717462320F4D4B7F7FFFF130704FF93
:102EF4003307F700B7170000B307F70037170000D0
:102F0400130727EF23AAE794B727000093876741A5
:102F14002322F4D4B7F7FFFF130704FF3307F700A6
:102F2400B7170000B307F70037E7FFFF1307078F52
:102F340023ACE794232404D4B7F7FFFF130704FF5B
:102F44003307F700B7170000B307F700371700007F
:102F5400130727EF23AEE794B7E7FFFF9387A7BED6
:102F64002326F4D4B7F7FFFF130704FF3307F70052
:102F7400B7170000B307F700372700001307F7B9A6
:102F840023A0E796B72700009387F7B92328F4D442
:102F9400B7F7FFFF130704FF3307F700B717000065
:102FA400B307F70037E7FFFF1307A7BE23A2E7968F
:102FB400B7170000938727EF232AF4D4B7F7FFFF4E
:102FC400130704FF3307F700B7170000B307F70030
:102FD40023A40796B7E7FFFF9387078F232CF4D426
:102FE400B7F7FFFF130704FF3307F700B717000015
:102FF400B307F700372700001307674123A6E796B6
:10300400B7170000938727EF232EF4D4B7F7FFFFF9
:10301400130704FF3307F700B7170000B307F700DF
:1030240037E7FFFF1307174623A8E796B7270000E3
:103034009387F7B92320F4D6B7F7FFFF130704FFEC
:103044003307F700B7170000B307F70037F7FFFFA0
:103054001307E71023AAE796B7E7FFFF9387A7BEF6
:103064002322F4D6B7F7FFFF130704FF3307F70053
:10307400B7170000B307F7003727000013070771DD
:1030840023ACE796232404D6B7F7FFFF130704FF06
:103094003307F700B7170000B307F70037E7FFFF60
:1030A4001307174623AEE796B72700009387F7B9AF
:1030B4002326F4D6B7F7FFFF130704FF3307F700FF
:1030C400B7170000B307F70023A00798B7E7FFFF7F
:1030D4009387078F2328F4D6B7F7FFFF130704FF5E
:1030E4003307F700B7170000B307F70037270000CE
:1030F4001307F7B923A2E798B72700009387F7B916
:10310400232AF4D6B7F7FFFF130704FF3307F700AA
:10311400B7170000B307F70037E7FFFF1307078F60
:1031240023A4E798232C04D6B7F7FFFF130704FF63
:103134003307F700B7170000B307F700372700007D
:103144001307F7B923A6E798B7E7FFFF9387174656
:10315400232EF4D6B7F7FFFF130704FF3307F70056
:10316400B7170000B307F70023A80798B727000094
:10317400938707712320F4D8B7F7FFFF130704FFE1
:103184003307F700B7170000B307F70037E7FFFF6F
:103194001307174623AAE798B7E7FFFF9387174655
:1031A4002322F4D8B7F7FFFF130704FF3307F70010
:1031B400B7170000B307F70037270000130707719C
:1031C40023ACE798232404D8B7F7FFFF130704FFC1
:1031D4003307F700B7170000B307F70037E7FFFF1F
:1031E4001307174623AEE798B72700009387F7B96C
:1031F4002326F4D8B7F7FFFF130704FF3307F700BC
:10320400B7170000B307F70023A0079AB7E7FFFF3B
:103214009387078F2328F4D8B7F7FFFF130704FF1A
:103224003307F700B7170000B307F700372700008C
:103234001307F7B923A2E79AB72700009387F7B9D2
:10324400232AF4D8B7F7FFFF130704FF3307F70067
:10325400B7170000B307F70037E7FFFF1307078F1F
:1032640023A4E79A232C04D8B7F7FFFF130704FF1E
:103274003307F700B7170000B307F700372700003C
:103284001307F7B923A6E79AB7E7FFFF9387174613
:10329400232EF4D8B7F7FFFF130704FF3307F70013
:1032A400B7170000B307F70023A8079AB727000051
:1032B400938707712320F4DAB7F7FFFF130704FF9E
:1032C4003307F700B7170000B307F70037E7FFFF2E
:1032D4001307174623AAE79AB7E7FFFF9387174612
:1032E4002322F4DAB7F7FFFF130704FF3307F700CD
:1032F400B7170000B307F70037270000130707715B
:1033040023ACE79A232404DAB7F7FFFF130704FF7B
:103314003307F700B7170000B307F70037E7FFFFDD
:103324001307A7BE23AEE79AB7170000938727EFCA
:103334002326F4DAB7F7FFFF130704FF3307F70078
:10334400B7170000B307F700372700001307F7B9D2
:1033540023A0E79CB7E7FFFF938717462328F4DAF7
:10336400B7F7FFFF130704FF3307F700B717000091
:10337400B307F70037F7FFFF1307E71023A2E79C13
:10338400B727000093876741232AF4DAB7F7FFFFD2
:10339400130704FF3307F700B7170000B307F7005C
:1033A40023A4079CB7E7FFFF9387078F232CF4DA46
:1033B400B7F7FFFF130704FF3307F700B717000041
:1033C400B307F70037170000130727EF23A6E79C7E
:1033D400B727000093876741232EF4DAB7F7FFFF7E
:1033E400130704FF3307F700B7170000B307F7000C
:1033F40037E7FFFF1307174623A8E79CB7E7FFFF4C
:10340400938717462320F4DCB7F7FFFF130704FF65
:103414003307F700B7170000B307F700372700009A
:103424001307674123AAE79CB7170000938727EF88
:103434002322F4DCB7F7FFFF130704FF3307F70079
:10344400B7170000B307F70037E7FFFF1307078F2D
:1034540023ACE79C232404DCB7F7FFFF130704FF26
:103464003307F700B7170000B307F700372700004A
:103474001307674123AEE79CB7F7FFFF9387E71075
:103484002326F4DCB7F7FFFF130704FF3307F70025
:10349400B7170000B307F70037E7FFFF1307174616
:1034A40023A0E79EB72700009387F7B92328F4DC0D
:1034B400B7F7FFFF130704FF3307F700B717000040
:1034C400B307F70037170000130727EF23A2E79E7F
:1034D400B7E7FFFF9387A7BE232AF4DCB7F7FFFF04
:1034E400130704FF3307F700B7170000B307F7000B
:1034F40023A4079EB727000093870771232CF4DCCD
:10350400B7F7FFFF130704FF3307F700B7170000EF
:10351400B307F70037F7FFFF1307E71023A6E79E6B
:10352400B7E7FFFF9387A7BE232EF4DCB7F7FFFFAF
:10353400130704FF3307F700B7170000B307F700BA
:10354400372700001307F7B923A8E79EB727000021
:103554009387F7B92320F4DEB7F7FFFF130704FFBF
:103564003307F700B7170000B307F70037E7FFFF8B
:103574001307A7BE23AAE79EB7F7FFFF9387E710B9
:103584002322F4DEB7F7FFFF130704FF3307F70026
:10359400B7170000B307F7003727000013070771B8
:1035A40023ACE79E232404DEB7F7FFFF130704FFD1
:1035B4003307F700B7170000B307F70037E7FFFF3B
:1035C4001307078F23AEE79E232604DEB7F7FFFF1A
:1035D400130704FF3307F700B7170000B307F7001A
:1035E400372700001307077123A0E7A0232804DE70
:1035F400B7F7FFFF130704FF3307F700B7170000FF
:10360400B307F70037E7FFFF1307078F23A2E7A0ED
:10361400232A04DEB7F7FFFF130704FF3307F7007D
:10362400B7170000B307F700372700001307077127
:1036340023A4E7A0232C04DEB7F7FFFF130704FF3E
:103644003307F700B7170000B307F70037E7FFFFAA
:103654001307078F23A6E7A0232E04DEB7F7FFFF87
:10366400130704FF3307F700B7170000B307F70089
:10367400372700001307077123A8E7A0232004E0DD
:10368400B7F7FFFF130704FF3307F700B71700006E
:10369400B307F70037E7FFFF1307078F23AAE7A055
:1036A400232204E0B7F7FFFF130704FF3307F700F3
:1036B400B7170000B307F700372700001307077197
:1036C40023ACE7A0232404E0B7F7FFFF130704FFAC
:1036D4003307F700B7170000B307F70037E7FFFF1A
:1036E4001307078F23AEE7A0232604E0B7F7FFFFF5
:1036F400130704FF3307F700B7170000B307F700F9
:10370400372700001307077123A0E7A2232804E04A
:10371400B7F7FFFF130704FF3307F700B7170000DD
:10372400B307F70037E7FFFF1307078F23A2E7A2CA
:10373400232A04E0B7F7FFFF130704FF3307F7005A
:10374400B7170000B307F700372700001307077106
:1037540023A4E7A2232C04E0B7F7FFFF130704FF19
:103764003307F700B7170000B307F70037E7FFFF89
:103774001307078F23A6E7A2232E04E0B7F7FFFF62
:10378400130704FF3307F700B7170000B307F70068
:10379400372700001307077123A8E7A2232004E2B8
:1037A400B7F7FFFF130704FF3307F700B71700004D
:1037B400B307F70037E7FFFF1307078F23AAE7A232
:1037C400232204E2B7F7FFFF130704FF3307F700D0
:1037D400B7170000B307F700372700001307077176
:1037E40023ACE7A2232404E2B7F7FFFF130704FF87
:1037F4003307F700B7170000B307F70037E7FFFFF9
:103804001307A7BE23AEE7A2B7F7FFFF9387E7101E
:103814002326F4E2B7F7FFFF130704FF3307F7008B
:10382400B7170000B307F700372700001307F7B9ED
:1038340023A0E7A4B72700009387F7B92328F4E26D
:10384400B7F7FFFF130704FF3307F700B7170000AC
:10385400B307F70037F7FFFF1307E71023A2E7A426
:10386400B7E7FFFF9387A7BE232AF4E2B7F7FFFF6A
:10387400130704FF3307F700B7170000B307F70077
:1038840023A407A4B727000093870771232CF4E22D
:10389400B7F7FFFF130704FF3307F700B71700005C
:1038A400B307F70037170000130727EF23A6E7A491
:1038B400B7E7FFFF9387A7BE232EF4E2B7F7FFFF16
:1038C400130704FF3307F700B7170000B307F70027
:1038D40037E7FFFF1307174623A8E7A4B72700001D
:1038E4009387F7B92320F4E4B7F7FFFF130704FF26
:1038F4003307F700B7170000B307F70037270000B6
:103904001307674123AAE7A4B7F7FFFF9387E710DC
:103914002322F4E4B7F7FFFF130704FF3307F7008C
:10392400B7170000B307F70037E7FFFF1307078F48
:1039340023ACE7A4232404E4B7F7FFFF130704FF31
:103944003307F700B7170000B307F7003727000065
:103954001307674123AEE7A4B7170000938727EF47
:103964002326F4E4B7F7FFFF130704FF3307F70038
:10397400B7170000B307F70037E7FFFF1307174631
:1039840023A0E7A6B7E7FFFF938717462328F4E4AD
:10399400B7F7FFFF130704FF3307F700B71700005B
:1039A400B307F70037170000130727EF23A2E7A692
:1039B400B727000093876741232AF4E4B7F7FFFF92
:1039C400130704FF3307F700B7170000B307F70026
:1039D40023A407A6B7E7FFFF9387078F232CF4E4FC
:1039E400B7F7FFFF130704FF3307F700B71700000B
:1039F400B307F70037F7FFFF1307E71023A6E7A67F
:103A0400B727000093876741232EF4E4B7F7FFFF3D
:103A1400130704FF3307F700B7170000B307F700D5
:103A2400372700001307F7B923A8E7A6B7E7FFFF76
:103A3400938717462320F4E6B7F7FFFF130704FF25
:103A44003307F700B7170000B307F70037E7FFFFA6
:103A54001307A7BE23AAE7A6B7170000938727EF8B
:103A64002322F4E6B7F7FFFF130704FF3307F70039
:103A7400B7170000B307F7003727000013070771D3
:103A840023ACE7A6232404E6B7F7FFFF130704FFDC
:103A94003307F700B7170000B307F70037E7FFFF56
:103AA4001307174623AEE7A6B7E7FFFF938717462A
:103AB4002326F4E6B7F7FFFF130704FF3307F700E5
:103AC400B7170000B307F70023A007A8B727000023
:103AD400938707712328F4E6B7F7FFFF130704FF62
:103AE4003307F700B7170000B307F70037270000C4
:103AF4001307F7B923A2E7A8B7E7FFFF9387174691
:103B0400232AF4E6B7F7FFFF130704FF3307F70090
:103B1400B7170000B307F70037E7FFFF1307078F56
:103B240023A4E7A8232C04E6B7F7FFFF130704FF39
:103B34003307F700B7170000B307F7003727000073
:103B44001307F7B923A6E7A8B72700009387F7B9A7
:103B5400232EF4E6B7F7FFFF130704FF3307F7003C
:103B6400B7170000B307F70023A807A8B7E7FFFFBC
:103B74009387078F2320F4E8B7F7FFFF130704FFA9
:103B84003307F700B7170000B307F70037E7FFFF65
:103B94001307174623AAE7A8B72700009387F7B9A6
:103BA4002322F4E8B7F7FFFF130704FF3307F700F6
:103BB400B7170000B307F700372700001307077192
:103BC40023ACE7A8232404E8B7F7FFFF130704FF97
:103BD4003307F700B7170000B307F70037E7FFFF15
:103BE4001307174623AEE7A8B7E7FFFF93871746E7
:103BF4002326F4E8B7F7FFFF130704FF3307F700A2
:103C0400B7170000B307F70023A007AAB7270000DF
:103C1400938707712328F4E8B7F7FFFF130704FF1E
:103C24003307F700B7170000B307F7003727000082
:103C34001307F7B923A2E7AAB7E7FFFF938717464D
:103C4400232AF4E8B7F7FFFF130704FF3307F7004D
:103C5400B7170000B307F70037E7FFFF1307078F15
:103C640023A4E7AA232C04E8B7F7FFFF130704FFF4
:103C74003307F700B7170000B307F7003727000032
:103C84001307F7B923A6E7AAB72700009387F7B964
:103C9400232EF4E8B7F7FFFF130704FF3307F700F9
:103CA400B7170000B307F70023A807AAB7E7FFFF79
:103CB4009387078F2320F4EAB7F7FFFF130704FF66
:103CC4003307F700B7170000B307F70037E7FFFF24
:103CD4001307174623AAE7AAB72700009387F7B963
:103CE4002322F4EAB7F7FFFF130704FF3307F700B3
:103CF400B7170000B307F700372700001307077151
:103D040023ACE7AA232404EAB7F7FFFF130704FF51
:103D14003307F700B7170000B307F70037F7FFFFC3
:103D24001307E71023AEE7AAB7E7FFFF9387A7BE01
:103D34002326F4EAB7F7FFFF130704FF3307F7005E
:103D4400B7170000B307F70037E7FFFF130717465D
:103D540023A0E7ACB72700009387F7B92328F4EA38
:103D6400B7F7FFFF130704FF3307F700B717000087
:103D7400B307F700372700001307674123A2E7AC16
:103D8400B7170000938727EF232AF4EAB7F7FFFF5A
:103D9400130704FF3307F700B7170000B307F70052
:103DA40023A407ACB7E7FFFF9387078F232CF4EA1C
:103DB400B7F7FFFF130704FF3307F700B717000037
:103DC400B307F70037E7FFFF1307A7BE23A6E7AC47
:103DD400B7170000938727EF232EF4EAB7F7FFFF06
:103DE400130704FF3307F700B7170000B307F70002
:103DF400372700001307F7B923A8E7ACB72700005B
:103E04009387F7B92320F4ECB7F7FFFF130704FFF8
:103E14003307F700B7170000B307F70037170000A0
:103E2400130727EF23AAE7ACB7E7FFFF9387A7BEE3
:103E34002322F4ECB7F7FFFF130704FF3307F7005F
:103E4400B7170000B307F70037E7FFFF1307078F23
:103E540023ACE7AC232404ECB7F7FFFF130704FFFC
:103E64003307F700B7170000B307F7003717000050
:103E7400130727EF23AEE7ACB7270000938767410A
:103E84002326F4ECB7F7FFFF130704FF3307F7000B
:103E9400B7170000B307F700372700001307F7B977
:103EA40023A0E7AEB7E7FFFF938717462328F4EC78
:103EB400B7F7FFFF130704FF3307F700B717000036
:103EC400B307F70037E7FFFF1307A7BE23A2E7AE48
:103ED400B7F7FFFF9387E710232AF4ECB7F7FFFF48
:103EE400130704FF3307F700B7170000B307F70001
:103EF40023A407AEB727000093870771232CF4ECA3
:103F0400B7F7FFFF130704FF3307F700B7170000E5
:103F1400B307F700372700001307674123A6E7AE6E
:103F2400B7F7FFFF9387E710232EF4ECB7F7FFFFF3
:103F3400130704FF3307F700B7170000B307F700B0
:103F440037E7FFFF1307174623A8E7AEB7E7FFFFDE
:103F5400938717462320F4EEB7F7FFFF130704FFF8
:103F64003307F700B7170000B307F70037F7FFFF71
:103F74001307E71023AAE7AEB7270000938767412A
:103F84002322F4EEB7F7FFFF130704FF3307F7000C
:103F9400B7170000B307F7003727000013070771AE
:103FA40023ACE7AE232404EEB7F7FFFF130704FFA7
:103FB4003307F700B7170000B307F70023AE07AEC7
:103FC400B7E7FFFF9387078F2326F4EEB7F7FFFFCA
:103FD400130704FF3307F700B7170000B307F70010
:103FE40037E7FFFF1307078F23A0E7B0232804EE6A
:103FF400B7F7FFFF130704FF3307F700B7170000F5
:10400400B307F70023A207B0B7270000938707710F
:10401400232AF4EEB7F7FFFF130704FF3307F70073
:10402400B7170000B307F70037270000130707711D
:1040340023A4E7B0232C04EEB7F7FFFF130704FF14
:104044003307F700B7170000B307F70023A607B03C
:10405400B7E7FFFF9387078F232EF4EEB7F7FFFF31
:10406400130704FF3307F700B7170000B307F7007F
:1040740037E7FFFF1307078F23A8E7B0232004F0D7
:10408400B7F7FFFF130704FF3307F700B717000064
:10409400B307F70023AA07B0B72700009387077177
:1040A4002322F4F0B7F7FFFF130704FF3307F700E9
:1040B400B7170000B307F70037270000130707718D
:1040C40023ACE7B0232404F0B7F7FFFF130704FF82
:1040D4003307F700B7170000B307F70023AE07B0A4
:1040E400B7E7FFFF9387078F2326F4F0B7F7FFFFA7
:1040F400130704FF3307F700B7170000B307F700EF
:1041040037E7FFFF1307078F23A0E7B2232804F044
:10411400B7F7FFFF130704FF3307F700B7170000D3
:10412400B307F70023A207B2B727000093870771EC
:10413400232AF4F0B7F7FFFF130704FF3307F70050
:10414400B7170000B307F7003727000013070771FC
:1041540023A4E7B2232C04F0B7F7FFFF130704FFEF
:104164003307F700B7170000B307F70023A607B219
:10417400B7E7FFFF9387078F232EF4F0B7F7FFFF0E
:10418400130704FF3307F700B7170000B307F7005E
:1041940037E7FFFF1307078F23A8E7B2232004F2B2
:1041A400B7F7FFFF130704FF3307F700B717000043
:1041B400B307F70023AA07B2B72700009387077154
:1041C4002322F4F2B7F7FFFF130704FF3307F700C6
:1041D400B7170000B307F70037270000130707716C
:1041E40023ACE7B2232404F2B7F7FFFF130704FF5D
:1041F4003307F700B7170000B307F70037170000BD
:10420400130727EF23AEE7B2B7E7FFFF9387A7BEF5
:104214002326F4F2B7F7FFFF130704FF3307F70071
:10422400B7170000B307F70037E7FFFF1307174678
:1042340023A0E7B4B7E7FFFF938717462328F4F2D8
:10424400B7F7FFFF130704FF3307F700B7170000A2
:10425400B307F70037E7FFFF1307A7BE23A2E7B4AE
:10426400B7170000938727EF232AF4F2B7F7FFFF6D
:10427400130704FF3307F700B7170000B307F7006D
:1042840023A407B4B727000093870771232CF4F203
:10429400B7F7FFFF130704FF3307F700B717000052
:1042A400B307F700372700001307674123A6E7B4D5
:1042B400B7170000938727EF232EF4F2B7F7FFFF19
:1042C400130704FF3307F700B7170000B307F7001D
:1042D400372700001307F7B923A8E7B4B7E7FFFFB0
:1042E400938717462320F4F4B7F7FFFF130704FF5F
:1042F4003307F700B7170000B307F70037F7FFFFDE
:104304001307E71023AAE7B4B7E7FFFF9387A7BE15
:104314002322F4F4B7F7FFFF130704FF3307F70072
:10432400B7170000B307F70037E7FFFF1307078F3E
:1043340023ACE7B4232404F4B7F7FFFF130704FF07
:104344003307F700B7170000B307F70037F7FFFF8D
:104354001307E71023AEE7B4B7270000938767413C
:104364002326F4F4B7F7FFFF130704FF3307F7001E
:10437400B7170000B307F700372700001307F7B992
:1043840023A0E7B6B72700009387F7B92328F4F4EE
:10439400B7F7FFFF130704FF3307F700B717000051
:1043A400B307F700372700001307674123A2E7B6D6
:1043B400B7F7FFFF9387E710232AF4F4B7F7FFFF5B
:1043C400130704FF3307F700B7170000B307F7001C
:1043D40023A407B6B7E7FFFF9387078F232CF4F4D2
:1043E400B7F7FFFF130704FF3307F700B717000001
:1043F400B307F70037E7FFFF1307A7BE23A6E7B607
:10440400B7F7FFFF9387E710232EF4F4B7F7FFFF06
:10441400130704FF3307F700B7170000B307F700CB
:1044240037E7FFFF1307174623A8E7B6B7270000AF
:104434009387F7B92320F4F6B7F7FFFF130704FFB8
:104444003307F700B7170000B307F700371700006A
:10445400130727EF23AAE7B6B7270000938767411E
:104464002322F4F6B7F7FFFF130704FF3307F7001F
:10447400B7170000B307F7003727000013070771C9
:1044840023ACE7B6232404F6B7F7FFFF130704FFB2
:104494003307F700B7170000B307F700372700000A
:1044A4001307F7B923AEE7B6B7E7FFFF93871746BD
:1044B4002326F4F6B7F7FFFF130704FF3307F700CB
:1044C400B7170000B307F70023A007B8B7E7FFFF4B
:1044D4009387078F2328F4F6B7F7FFFF130704FF2A
:1044E4003307F700B7170000B307F70037E7FFFFFC
:1044F4001307174623A2E7B8B7E7FFFF93871746CA
:10450400232AF4F6B7F7FFFF130704FF3307F70076
:10451400B7170000B307F70037E7FFFF1307078F4C
:1045240023A4E7B8232C04F6B7F7FFFF130704FF0F
:104534003307F700B7170000B307F70037E7FFFFAB
:104544001307174623A6E7B8B72700009387F7B9E0
:10455400232EF4F6B7F7FFFF130704FF3307F70022
:10456400B7170000B307F70023A807B8B727000060
:10457400938707712320F4F8B7F7FFFF130704FFAD
:104584003307F700B7170000B307F7003727000019
:104594001307F7B923AAE7B8B72700009387F7B939
:1045A4002322F4F8B7F7FFFF130704FF3307F700DC
:1045B400B7170000B307F700372700001307077188
:1045C40023ACE7B8232404F8B7F7FFFF130704FF6D
:1045D4003307F700B7170000B307F70037270000C9
:1045E4001307F7B923AEE7B8B7E7FFFF938717467A
:1045F4002326F4F8B7F7FFFF130704FF3307F70088
:10460400B7170000B307F70023A007BAB7E7FFFF07
:104614009387078F2328F4F8B7F7FFFF130704FFE6
:104624003307F700B7170000B307F70037E7FFFFBA
:104634001307174623A2E7BAB7E7FFFF9387174686
:10464400232AF4F8B7F7FFFF130704FF3307F70033
:10465400B7170000B307F70037E7FFFF1307078F0B
:1046640023A4E7BA232C04F8B7F7FFFF130704FFCA
:104674003307F700B7170000B307F70037E7FFFF6A
:104684001307174623A6E7BAB72700009387F7B99D
:10469400232EF4F8B7F7FFFF130704FF3307F700DF
:1046A400B7170000B307F70023A807BAB72700001D
:1046B400938707712320F4FAB7F7FFFF130704FF6A
:1046C4003307F700B7170000B307F70037270000D8
:1046D4001307F7B923AAE7BAB72700009387F7B9F6
:1046E4002322F4FAB7F7FFFF130704FF3307F70099
:1046F400B7170000B307F700372700001307077147
:1047040023ACE7BA232404FAB7F7FFFF130704FF27
:104714003307F700B7170000B307F7003727000087
:104724001307674123AEE7BAB7F7FFFF9387E71094
:104734002326F4FAB7F7FFFF130704FF3307F70044
:10474400B7170000B307F700372700001307F7B9BE
:1047540023A0E7BCB7E7FFFF938717462328F4FAA3
:10476400B7F7FFFF130704FF3307F700B71700007D
:10477400B307F70037170000130727EF23A2E7BC9E
:10478400B7E7FFFF9387A7BE232AF4FAB7F7FFFF23
:10479400130704FF3307F700B7170000B307F70048
:1047A40023A407BCB7E7FFFF9387078F232CF4FAF2
:1047B400B7F7FFFF130704FF3307F700B71700002D
:1047C400B307F70037F7FFFF1307E71023A6E7BC8B
:1047D400B7E7FFFF9387A7BE232EF4FAB7F7FFFFCF
:1047E400130704FF3307F700B7170000B307F700F8
:1047F40037E7FFFF1307174623A8E7BCB7E7FFFF18
:10480400938717462320F4FCB7F7FFFF130704FF31
:104814003307F700B7170000B307F70037E7FFFFC8
:104824001307A7BE23AAE7BCB7F7FFFF9387E710D8
:104834002322F4FCB7F7FFFF130704FF3307F70045
:10484400B7170000B307F70037E7FFFF1307078F19
:1048540023ACE7BC232404FCB7F7FFFF130704FFD2
:104864003307F700B7170000B307F70037E7FFFF78
:104874001307A7BE23AEE7BCB7170000938727EF43
:104884002326F4FCB7F7FFFF130704FF3307F700F1
:10489400B7170000B307F70037E7FFFF1307174602
:1048A40023A0E7BEB72700009387F7B92328F4FCB9
:1048B400B7F7FFFF130704FF3307F700B71700002C
:1048C400B307F70037F7FFFF1307E71023A2E7BE8C
:1048D400B727000093876741232AF4FCB7F7FFFF4B
:1048E400130704FF3307F700B7170000B307F700F7
:1048F40023A407BEB727000093870771232CF4FC79
:10490400B7F7FFFF130704FF3307F700B7170000DB
:10491400B307F70037170000130727EF23A6E7BEF6
:10492400B727000093876741232EF4FCB7F7FFFFF6
:10493400130704FF3307F700B7170000B307F700A6
:10494400372700001307F7B923A8E7BEB7270000ED
:104954009387F7B92320F4FEB7F7FFFF130704FF8B
:104964003307F700B7170000B307F7003727000035
:104974001307674123AAE7BEB7170000938727EF01
:104984002322F4FE232604FE6F00801A8327C4FE2C
:104994009397270037F7FFFF930604FF3387E6005A
:1049A4000327877EB307F70023A007008327C4FEED
:1049B4009397270037F7FFFF930604FF3387E6003A
:1049C4000327477EB307F70023A00700232404FE30
:1049D4006F0080148327C4FE9397270037F7FFFFE7
:1049E400930604FF3387E6000327877EB307F700A7
:1049F40083A40700832784FE9397270037F7FFFFDC
:104A0400930604FF3387E6000327C77EB307F70046
:104A140003A60700B7F7FFFF130704FF3307F700E8
:104A24008327C4FE93964700832784FEB387F6004A
:104A340093972700B307F70083A7877F9385070021
:104A440013050600EF00C02F9307050093860700A7
:104A54008327C4FE9397270037F7FFFF130604FF4D
:104A64003307E6000327877EB307F7003387D400B4
:104A740023A0E7008327C4FE9397270037F7FFFF9F
:104A8400930604FF3387E6000327477EB307F70046
:104A940083A40700832784FE9397270037F7FFFF3B
:104AA400930604FF3387E6000327C77EB307F700A6
:104AB40083A607008327C4FE13974700832784FE39
:104AC4003307F700930784BE13172700B307F700D3
:104AD40083A707009385070013850600EF0040268F
:104AE40093070500938607008327C4FE9397270046
:104AF40037F7FFFF130604FF3307E6000327477E5B
:104B0400B307F7003387D44023A0E700832784FE4C
:104B1400938717002324F4FE032784FE9307F000F1
:104B2400E3DAE7EA8327C4FE938717002326F4FE1B
:104B34000327C4FE9307F000E3DAE7E41300000060
:104B440013000000130101048320C17E0324817E2D
:104B54008324417E1301017F67800000130101E972
:104B6400232611162324811623229116232021178C
:104B7400232E311513040117B757020013858747F5
:104B8400EFD08FC7B75702001385C748EFD0CFC601
:104B9400232E04FC6F000007130784F50326C4FDCD
:104BA400B75702009385474A13050700EF000075C5
:104BB400930784F513850700EFD00FC4930784F59A
:104BC40013850700EFD04FCE930784F513850700B4
:104BD400EFD08FC2930784F513850700EF00801888
:104BE400930605000327C4FD930784F113172700D8
:104BF400B307F70023A0D7008327C4FD93871700CA
:104C0400232EF4FC0327C4FD9307F000E3D6E7F852
:104C1400B75702001385074BEFD00FBE930684E904
:104C2400130784ED930784F11386060093050700A8
:104C340013850700EFD08FD1232C04FC6F00800D67
:104C4400032784FD930784ED13172700B307F700A8
:104C540083A40700032784FD930784E9131727001F
:104C6400B307F70003A90700032784FD930784ED26
:104C740013172700B307F70083A60700032784FD53
:104C8400930784ED13172700B307F70083A70700E2
:104C94009385070013850600EF00800A930705003B
:104CA40093890700032784FD930784E913172700DA
:104CB400B307F70083A60700032784FD930784E95D
:104CC40013172700B307F70083A70700938507008E
:104CD40013850600EF00C00693070500B387F900AB
:104CE400130584F51307090093860400032684FD45
:104CF400B75502009385854CEF004060930784F517
:104D040013850700EFD04FAF832784FD93871700E7
:104D1400232CF4FC032784FD9307F000E3D2E7F28D
:104D2400B75702001385C74EEFD00FADEFD08FB346
:104D34009307050013850700EFD00FA86FF01FFF3E
:104D4400130605001305000093F61500638406009E
:104D54003305C50093D5150013161600E39605FE1A
:104D6400678000001306A000930500006F00C04C8C
:104D74009306A000130600006F00C042130101FB5C
:104D8400B75702002324810423202105232C410347
:104D94002328610323261104138B06002322910484
:104DA400232E3103232A5103232671032324810351
:104DB400232291032320A103232EB101138905008B
:104DC4002324A100130A0600138405009386D74FF9
:104DD400930404000347040013041400B387E6009B
:104DE40083C7070093F78700E39407FE9307D00275
:104DF400937CFBFE6302F7169307B002630CF70A79
:104E040063840C18B704008093050B001385F4FF2A
:104E14002326E100EF00C15A93090B00930C05000F
:104E240093050B001385F4FFEF0001550327C10020
:104E3400938DF4FF930A0500130D000093070000FF
:104E440013050000930B9000130C9001930407FDCD
:104E540063FE9B009306F7FB930497FC6378DC00E6
:104E64009306F7F9636EDC06930497FA63DA640732
:104E74009387170093B7170033B7AA00B3E7E70087
:104E8400639C0704B307554193B7170033A79C00ED
:104E9400B3F7E7006392070493850900EFF05FEA34
:104EA4003385A40093071000130414000347F4FF90
:104EB4006FF0DFF90347040063920C1493070003B7
:104EC4006300F728631A0B24130BA000B7070080B4
:104ED400138424006F00800C9307F0FF6FF0DFFC55
:104EE4001307F0FF638AE70463040D003305A04051
:104EF40063060A006390071023202A018320C1045B
:104F04000324810483244104032901048329C10364
:104F1400032A8103832A4103032B0103832BC10248
:104F2400032C8102832C4102032D0102832DC10134
:104F34001301010567800000032781009307200205
:104F440013850D002320F700E30A0AFA1309F4FF7E
:104F540013850D006FF05FFA03470400639E0C0491
:104F640093070003630CF712630C0B16130B000179
:104F74001384240093090B00B70A0008130D1000D2
:104F8400B70D00806FF09FEB930700036308F70AE7
:104F940063140B0E130BA000B7070080B7DACC0C18
:104FA400938ACACC93090B00938DF7FF130D00006D
:104FB400930C70006FF09FE893050B003705008099
:104FC4002326E100EF00C13F930C050093050B007D
:104FD40037050080EF00413A0327C10093090B0015
:104FE40013842400930A0500130D1000B70D0080EC
:104FF4006FF0DFE4930D05006FF05FF5B70B0080F1
:1050040093050B001385FBFF2326E100EF00413BD2
:10501400930C050093050B001385FBFFEF00C135CE
:105024000327C10093090B0013842400938DFBFF15
:10503400930A0500130D00006FF05FE0834704003E
:105044009306800593F7F70D638ED70A631C0B1044
:10505400130B800093090B00B704008093850900AB
:105064001385F4FF2326E100EF008135930C05003E
:10507400938509006FF01FDBB70A0008130B0001CA
:10508400B7070080938AFAFF93090B00938DF7FF0B
:10509400130D0000930CF0006FF05FDA83C7240057
:1050A4009306800593F7F70D6382D708631C0B0CF6
:1050B400130B80001384240093090B0093850900CB
:1050C400370500802326E100EF00012B0327C100F0
:1050D400930A0500130D1000B70D00806FF01FD662
:1050E400130BA000B7DACC0C13842400938ACACC27
:1050F40093090B00930C8000130D1000B70D008072
:105104006FF0DFD3130B00010347140093090B0066
:10511400138434006FF05FF4B70A0008130B000126
:10512400B7070080138424006FF0DFF5130B000130
:1051340003C7340093090B00138444006FF01FF875
:1051440083C724009306800593F7F70D6392D70273
:10515400130B000103C7340093090B0013844400AC
:105164006FF09FEF130B000193090B006FF0DFEE5C
:1051740063020B02130B00011384240093090B0038
:105184006FF09FED130B00011384240093090B00AF
:105194006FF0DFF2130B80001384240093090B00DB
:1051A4006FF09FEB13B756029387F6FF1337170080
:1051B40093B717003367F700631407006FF01FBC41
:1051C400130101FF23261100EF00001B8320C100FF
:1051D400930760012320F50013050000130101016A
:1051E40067800000933756021307F6FF93B7170042
:1051F40013371700B3E7E700639E070013070500A2
:1052040003A5C1F093060600138605009305070065
:105214006FF0DFB6130101FF23261100EF00C01564
:105224008320C100930760012320F50013050000CB
:105234001301010167800000933756021307F6FF3C
:1052440093B7170013371700B3E7E700639E07000F
:105254001307050003A5C1F0930606001386050095
:10526400930507006FF09FB1130101FF232611007E
:10527400EF0080108320C100930760012320F50014
:10528400130500001301010167800000130101F6FA
:10529400930EC10837030080370EFFFF138F0500FC
:1052A4002326D1081303F3FF130E8E2093058100E8
:1052B40093860E00232E1106232AF1082324E101EC
:1052C400232CE1012328E108232C0109232E1109B1
:1052D4002326010623286100232E6100232AC1010D
:1052E4002322D101EF00C009832781002380070016
:1052F4008320C1071301010A67800000130101F62E
:10530400130F050003A5C1F0930E81083703008035
:10531400370EFFFF2324C1082326D1081303F3FF0C
:1053240013860500130E8E209305810093860E00CC
:10533400232E1106232AF1082324E101232CE10161
:105344002328E108232C0109232E11092326010611
:1053540023286100232E6100232AC1012322D101C5
:10536400EF00000283278100238007008320C10708
:105374001301010A6780000003A5C1F067800000E3
:10538400130101E4232E111A2324411B2326B119EE
:10539400138A0500930D06002328D1002320A100C1
:1053A400EF30801783270500138507002326F102B9
:1053B400EF3080178357CA002324A1022320010C55
:1053C40093F707086388070083270A01639407009B
:1053D4006F109031232C811A232A911A2328211B20
:1053E4002326311B2322511B2320611B232E7119D9
:1053F400232C8119232A91192328A119B7570200B4
:105404009309C10DB76A020093874778232E010AD6
:10541400232C010A232A310B13840900232AF100C7
:10542400938A0A8F232C010023280102232A0102D4
:1054340023200104232C01022324010093040001EE
:10544400138B0D002322410183460B00930B0B00A9
:105454001387B6FD3337E000B337D000B3F7E70066
:105464006380070683C61B00938B1B001387B6FD5E
:105474003337E000B337D000B3F7E700E39407FE17
:10548400338C6B41638E6B038327C10B0327810B22
:1054940023206401B38787011307170023228401A3
:1054A400232EF10A232CE10A9307700013048400CD
:1054B40063C4E71E83278100B38787012324F10097
:1054C400639406006F10D07F03C31B00138B1B0073
:1054D400A3090108930DF0FF130A0000130900004B
:1054E400930BA005130B1B00930703FE63E6FB0459
:1054F4000327410193972700B387E70083A7070099
:1055040067800700930703FD130A000093069000C9
:1055140013172A0003430B00330A4701131A1A0016
:10552400338A4701930703FD130B1B00E3F2F6FED6
:10553400930703FEE3FEFBFA631403006F10507835
:10554400130D1000230E6110A3090108930B0D0025
:1055540023260100930D00002322010223200102CF
:10556400232E0100930CC1118327C10B137C49081E
:1055740013860700E3040C0C03473109630807068C
:105584008325810B13070000130631092320C4006F
:105594009387170013061000938515002322C40077
:1055A400232EF10A232CB10A13067000130484007D
:1055B400634EB666630C07028325810B130741090A
:1055C4002320E40093872700130720009385150008
:1055D4002322E400232EF10A232CB10A13077000BE
:1055E400130484006354B7006F10002A13070008E3
:1055F4006314EC006F108011B38DAD41E34CB00522
:1056040013770910E31407120327810BB387A7014B
:10561400232EF10A13071700232094012322A40147
:1056240093067000232CE10A63C0E674130484001B
:10563400937E490063880E00330C7A4163548001E1
:105644006F100027130E0A0063547A01138E0B00A7
:10565400032781003307C7012324E1006384070083
:105664006F10C01A8327C100232C010A6388070026
:105674000325010093850700EFB08FFF1384090011
:105684006FF09FDC03430B006FF0DFE503430B0077
:10569400136909026FF01FE583254100032501000A
:1056A4001306410BEF20504E630405006F20D01504
:1056B40083C60B00138409006FF0DFDF9377890042
:1056C400638407006F1040618327010113050108FB
:1056D400232661009387770093F787FF03A647008B
:1056E40083A50700938787002328F100EFF0D028D3
:1056F4000326010883264108032781088327C1085C
:105704000323C1001305010C232661002326F10C99
:105714002320C10C2322D10C2324E10CEF30003EC2
:10572400232CA108930720000323C1006314F50070
:105734006F10504D930710006314F5006F10D0687C
:10574400937BF3FD930710046384FB006F10D06C0C
:105754009307F3F9B337F000B307F04093F707FE6C
:1057640093878707A30AF10893070003230AF10824
:105774009307300663D4B7016F2000228327C10C3E
:105784000327010C0326410C8325810C63D40700F5
:105794006F204070232E010223260100930CC111B7
:1057A400130C0108232AC106232CB10613050C008F
:1057B4009305010713068109232861022328E106C2
:1057C400232EF106EF205072832781080326010857
:1057D40003274108232CF1068327C1082328C10687
:1057E400232AE106130601063707FC3F9305010748
:1057F40013050C002326E106232EF10623200106BF
:105804002322010623240106EFD08001832F0108FF
:1058140003284108032681080327C10893050107CB
:1058240013050C002322F10323200103232EC100BE
:10583400232CE10023280106232A0106232C010638
:10584400232E0106EFC0D049032781010326C1019D
:1058540003280102832F4102032301031369290052
:105864006316050093071000232CF108375D02002E
:1058740093064D6293071006232CD1006318F3009E
:10588400375D020093070D61232CF10023204103AF
:105894002322810223289103232221052324610545
:1058A40013890C0003248101232E6100138A0F0045
:1058B400130B0800930B0600930C07006F00000401
:1058C4009305010713050C002320410923226109D4
:1058D400232471092326910923280106232A01067A
:1058E400232C0106232E0106138DFDFFEFC0503F2C
:1058F400631405006F209000930D0D00B70703405B
:10590400130601069305010713050C002326F1066F
:1059140023284107232A6107232C7107232E91078B
:10592400232001062322010623240106EFC0506F21
:1059340013050C00EFF0806593050500130D0500B9
:1059440013050C00832C0108832B4108032B8108C9
:10595400032AC108EFF08070032781080326010899
:1059640083264108232CE1040327C1082328C1040A
:10597400930501061306010513050107232091076A
:10598400232271072324610723264107232AD104F4
:10599400232EE104EFE0001C3307A4018345070034
:1059A4009306090013091900032A0107032B410771
:1059B400832B8107832CC107A30FB9FEE3920DF05B
:1059C4000323C101930F0A0013080B0013860B0075
:1059D40013870C00B70DFE3F9305010713050C0058
:1059E40023266104232ED10003244102032B8104C6
:1059F400832C0103930B09002320F109032941049B
:105A04002324F10523220109232201052324C108AB
:105A14002328C1022326E1082322E10223280106C8
:105A2400232A0106232C0106232EB107EFC0503987
:105A3400032A01028326C1010323C1046346A00291
:105A44009305010713050C00232E61002320D102C6
:105A5400EFC010290323C101631E050493771D00C1
:105A64008326010263880704832781012320D10A46
:105A740003C6FBFF83C5F70013870B006390C502C1
:105A840013050003A30FA7FE0327010A9307F7FFDB
:105A94002320F10A0346F7FFE306B6FE930516003A
:105AA4001305900393F5F50F6314A6006F10507659
:105AB400A30FB7FE032781091306F300B3879B41A5
:105AC400130DF7FF2302C10A232CA109232CF10093
:105AD40063540D006F1010709307B002A302F10A13
:105AE4009307900063C4A7016F109070130C310BDF
:105AF40023208102930B0B00232E610013040C005E
:105B0400130B09009305A00013050D00EFF0900E90
:105B140093070503930D0400A38FFDFE13050D00E9
:105B24009305A000EFF0D00413090D00930730068D
:105B34001304F4FF130D0500E3C627FD13090B003E
:105B4400130D0503138B0B00930B0400A38FABFF02
:105B54009387EDFF0323C1010324010263E487015A
:105B64006F2040709305610A1387050083C6070000
:105B74009387170013071700A30FD7FEE39887FF37
:105B8400B387B70093872700B387B7411307410A48
