:060000002082022000FF37
:20028000A02BA200BD001018C900F007E820EFFF4C8402AD85021869418D8502B00688D06C
:0A02A000E12000FFEE86024C9E02F2
:201000002020202020202020202020202020202020202020202020202020202020202020D0
:20102000202323232323232323232323232323232320202020202020202020202020200A96
:20104000002020202020202020202020202020202020202020202323232323232323232392
:20106000232323232323232323232323232323232323232323232323202020202020202028
:201080000A002020202020202020202020202020202020202020202323232323232323236B
:2010A0002323232323232323232323232323232323232323232323232323232020202020DF
:2010C000200A0020202020202020202020202020232323232020202023232323202020202E
:2010E0002323232323232323232323232020202020202020202023232323232320202020BA
:2011000020200A0020202020202020202020202020232323232323232323232323232323D8
:20112000232020232323232323232323232323232323232323232323232020202023232064
:201140002020200A0020202020202020202023232323232323232323232323232323202095
:2011600020202323232323232323232323232323232323232323232323232323232320201B
:20118000202020200A00202020202020202020232323232323232323232323232323232055
:2011A0002020202020202023232323232323232323202020202323232323232323232323F0
:2011C00023232320200A002020202020232323232323232320202323232323232323232306
:2011E0002020232323232323202023232323232323232323202020202020202023232323B3
:201200002323232323230A00202323232323232323232323232323232323232323232320B0
:2012200020202023232323232320202323232323232323232323232323202020202020236F
:20124000232323232320200A00202323232323232323232323232323232323232323232373
:2012600020202020232323232323202020202323232323232323232323232323232320202C
:2012800020202323232320200A002020202020232323232323232323232323232323232345
:2012A0002323232020202023232323232323232020202023232323232323232323232323E6
:2012C0002323232020202023230A0020202020202323232323232323232323232323232305
:2012E0002323232320202323232323232323232323232020202020202020232323232323AC
:20130000232323232323202020200A002020202020232323232323232323232323232323C4
:20132000232020202023232323232323232323232323232323232323232020202023232365
:2013400023232323232323202020200A002020202020232323232323232323232323232384
:2013600020202020232323232323232323232323232323232323232323232323232320201F
:201380002323232323232323202020200A0020202020202323232323232323232323232047
:2013A0002020202323232323232323232323232020202023232323232323232323232320E5
:2013C000202020232323232323202020200A00202020202020202020232323232020202025
:2013E0002020202023232323232323232323232323232020202020202323232323232323AB
:2014000023232323202023232323202020200A0020202020202020202020202020232323E1
:20142000232323232323232323232323232323202020202323202020202323232323232364
:201440002323232020202023232020202020200A00202020202020202020202020202323AD
:2014600023232323232323232323232323232323232320202323232320202020232323231E
:20148000232323232020202020202020202020200A00202020202020202020232323232367
:2014A0002323232323232323232323232323232020202023232323232320202323232323DE
:2014C00023202020202020202020202020202020200A002020202020202020202323232333
:2014E00023232323232323232323232323232323202020202323232323232323202023239E
:201500002323202020202020232320202020202020200A00202020202020202020232323EC
:20152000232323232323232323232323232323202020202323232323232323232320202060
:20154000202020202023232323232320202020202020200A002020202020202020202323A9
:2015600023232323232323232323232320202020232323232323232323232323232320201D
:2015800020202323232323232323232320202020202020200A002020202020202020202360
:2015A0002323232323232323232020202023232323232323232323232323232323232323D7
:2015C0002323232323232323232323232320202020202020200A002020202020202020201A
:2015E000232323232323232320202020232323232323232323232323232323232323232397
:20160000232323232323232323232323232320202020202020200A002020202020202020D6
:20162000202323232320202020232323232323232323232323232323232323232323232359
:2016400023232323232323232323232020202020202020202020200A00202020202020209F
:2016600020202323232320202323232323232323232323232020232323232323232323231C
:201680002323232323232323232323232020202020202020202020200A002020202020205C
:2016A0002020202020202023232020232323232323232323232020232323232323232323EB
:2016C000232323232323232323232323232020202020202020202020200A00202020202019
:2016E0002020202020202020202020202323232323232323202020202323232323232323BA
:2017000020202323232323232323232320202020202020202020202020200A0020202020E1
:20172000202020202020202020202020202323232323232323202023232323232323232079
:201740002020202323232323232323202020202020202020202020202020200A00202020A7
:20176000202020202020202020202020202023232323202020202323232323232323202045
:20178000202023232323202020202020202020202020202020202020202020200A00202073
:2017A000202020202020202020202020202020202020202323232320202323232323232308
:2017C00023202020202323232320202020202020202020202020202020202020200A002030
:2017E0002020202020202020202020202020202020202020232320202323232323232323CB
:201800002020202020202020202020202020202020202020202020202020202020200A00FE
:2018200020202020202020202020202020202020202020202020202020202020202323239F
:20184000232323202020202020202020202020202020202020202020202020202020200A95
:20186000002020202020202020202020202020202020202020202020202020202020232382
:20188000232320202020202020202020202020202020202020202020202020202020202042
:2018A0000A002020202020202020202020202020202020202020202020202020202020205E
:2018C0002020202323232320202020202020202020202020202020202020202020202020FC
:2018E000200A0020202020202020202020202020202020202020202020202020202020201E
:201900002020202020202020232020202020202020202020202020202020202020202020C4
:2019200020200A0020202023232020232320232320202020232023232020202320232320B9
:2019400020202020232020232323232320202323202020232023232323232023232323234E
:201960002020200A002020202323202320202020232320202320202323202020232023237C
:20198000202320202023202323202020202320232320202023202323202020202323202023
:2019A000202020200A0020202023232320202020202023232320202023232020202320233F
:2019C0002320202320202320232320202020202023232323232320232323232320232323CE
:2019E00023202020200A002020202323232020202020202023232020202323202020232002
:201A0000232320202023202320232320232323232023232020202320232320202020232393
:201A20002020202020200A00202020232320232020202020202323202020232320202023C4
:201A400020232320202020232320232320202023232023232020202320232320202020235C
:201A6000232020202020200A0020202023232020232320202020232320202020232323237B
:201A8000202023232020202020232020232323232023202323202020232023232323232016
:0B1AA00023232323232020200A000022
:00000001FF
