:060000002080032000FF38
:20038000AD73068DD706AD74068DD80620DA06AD75068DD706AD76068DD80620DA06AD77F1
:2003A000068DD706AD78068DD80620DA06AD79068DD706AD7A068DD80620DA06AD7B068D4E
:2003C000D706AD7C068DD80620DA06AD7D068DD706AD7E068DD80620DA06AD7F068DD706D4
:2003E000AD80068DD80620DA06AD81068DD706AD82068DD80620DA06AD83068DD706AD8450
:20040000068DD80620DA06AD85068DD706AD86068DD80620DA06AD87068DD706AD88068DB9
:20042000D80620DA06AD89068DD706AD8A068DD80620DA06AD8B068DD706AD8C068DD8063E
:2004400020DA06AD8D068DD706AD8E068DD80620DA06AD8F068DD706AD90068DD80620DAF2
:2004600006AD91068DD706AD92068DD80620DA06AD93068DD706AD94068DD80620DA06AD09
:2004800095068DD706AD96068DD80620DA06AD97068DD706AD98068DD80620DA06AD9906ED
:2004A0008DD706AD9A068DD80620DA06AD9B068DD706AD9C068DD80620DA06AD9D068DD7F4
:2004C00006AD9E068DD80620DA06AD9F068DD706ADA0068DD80620DA06ADA1068DD706AD75
:2004E000A2068DD80620DA06ADA3068DD706ADA4068DD80620DA06ADA5068DD706ADA6064C
:200500008DD80620DA06ADA7068DD706ADA8068DD80620DA06ADA9068DD706ADAA068DD85E
:200520000620DA06ADAB068DD706ADAC068DD80620DA06ADAD068DD706ADAE068DD806206D
:20054000DA06ADAF068DD706ADB0068DD80620DA06ADB1068DD706ADB2068DD80620DA0683
:20056000ADB3068DD706ADB4068DD80620DA06ADB5068DD706ADB6068DD80620DA06ADB7CF
:20058000068DD706ADB8068DD80620DA06ADB9068DD706ADBA068DD80620DA06ADBB068D6C
:2005A000D706ADBC068DD80620DA06ADBD068DD706ADBE068DD80620DA06ADBF068DD706F2
:2005C000ADC0068DD80620DA06ADC1068DD706ADC2068DD80620DA06ADC3068DD706ADC42E
:2005E000068DD80620DA06ADC5068DD706ADC6068DD80620DA06ADC7068DD706ADC8068DD8
:20060000D80620DA06ADC9068DD706ADCA068DD80620DA06ADCB068DD706ADCC068DD8065C
:2006200020DA06ADCD068DD706ADCE068DD80620DA06ADCF068DD706ADD0068DD80620DA10
:2006400006ADD1068DD706ADD2068DD80620DA06ADD3068DD706ADD4068DD80620DA06AD27
:20066000D5068DD706ADD6068DD80620DA062000FF790600106610CC1032119811FE1164E2
:2006800012CA1230139613FC136214C8142E159415FA156016C6162C179217F8175E18C49D
:2006A000182A199019F6195C1AC21A281B8E1BF41B5A1CC01C261D8C1DF21D581EBE1E2417
:2006C0001F8A1FF01F5620BC2022218821EE215422BA2220238623000000ADD8068DED06AD
:2006E000ADD7068DEC06A2008ED906BDD70618C900F00DE88ED90620EFFFAED9064CEB063D
:010700006098
:20100000202320232023202320232023232323232323202323232323232323232323232385
:201020002323232323232323232323232323232323232323202320232323232320232A2A4B
:20104000232323232323232323232323232323232323232323232323232323232323232330
:20106000232323230A00202320232023232323232323232323232323232323232323232355
:201080002323232323232323232323232323202320232323232323232323202320232323FC
:2010A000232320232A2A2323232323232323232323232323232323232323232323232323C5
:2010C000232323232323232323230A002323232323232323232323232323232323232323EC
:2010E000232323232323232323232323232323232323232323232023232323232323232393
:2011000020232023232323232023202323232323232323232323232323232323232323237B
:20112000232323232323232323232323232323230A0023232323232323232323232323238B
:2011400023232323232323232323232323232323232323232323232323232323232323232F
:20116000232323232323202323232323232320232023232323232323232323232323232318
:20118000232323232323232323232323232323232323232323230A0023232323232323232B
:2011A0002323232323232323232323232323232323232323232323232323232323232323CF
:2011C0002023202323232323232323232323232323232323202320232323232323232323BB
:2011E000232323232323232323232323232323232323232323232323232323230A002023CE
:2012000023232323232323232323232323232323232323232323232323232323232323236E
:20122000202323232323232323232323232323232323232323232323232323232323232351
:2012400023232323232323232323232323232323232323232323232323232323232323232E
:2012600023230A002323202323232023232323232323232323232323232323232323232350
:201280002323232323232323232323232323232323232323232323232323232323232323EE
:2012A0002323232323232323232323232323232323232323232323232323232323232323CE
:2012C00023232323232323230A0023232323232323232323232323232323232323232323EA
:2012E000232323232323202320232023232323232323232320232A2A2A2A202A202A2B2B66
:20130000202A2A2A202323232323232323232323232323232323232323232323232323235E
:2013200023232323232323232323232323230A002323232323232323232323232323232389
:201340002323232323232323232320232023202320232323202320232A2A202A2B2B2B2B0D
:20136000202B202B202B202B2B2B202A2A2A232323232323232323232323232323232323D7
:2013800023232323232323232323232323232323232323230A002323232323232323232329
:2013A0002323232323232323232323232323232320232023202320232A2A2A2A202A2B2BA9
:2013C0002B2B202B202B202B202B202B202B202B2B2B202A2A2A202323232323232323235B
:2013E0002323232323232323232323232323232323232323232323232A2A0A0023232323BB
:201400002323232323232323232323232323232323232323202320232023202320232A2A6D
:20142000202A2B2B202B2E2E2E2E2E2E2E2E2E2E202B202B202B2B2B2B2B202A2A2A232384
:2014400023232323232323232323232323232323232323232323232323232323232320232F
:201460000A0023232323232323232323232323232323232323232323202320232023202354
:2014800020232A2A202B202B2E2E2E2E2E2E2E2E2E2E2E2E2E2E2E2E202B202B2B2B2B2BFD
:2014A0002B2B202A20232323232323232323232323232323202323232323232323232323BE
:2014C0002323232323230A00232323232323232323232323202323232323232320232023F1
:2014E000202320232A2A202A202B2E2E2E2E2E2E2E2E2E2E2E2E2E2E2E2E2E2E2E2E202B9A
:20150000202B202B2B2B2B2B202A2A2A20232323232323232323232320232A2A2323232327
:201520002323232323232323232323230A0020232023232323232323202323232323232390
:201540002023232323232323202A2B2B202B2E2E2E2E2E2E2E2E2E2E2E2E2E2E2E2E2E2E4F
:201560002E2E2E2E2E2E2E2E202B202B2B2B202A2A2A2A2A2023232323232323232323237C
:201580002323232323232323232323232323232323230A00202320232A2A2A2A2A2A202306
:2015A0002A2A2A2A20232323232323232A2A202B2E2E2E2E2E2E2E2E2E2E2E2E2E2E2E2EEF
:2015C0002E2E2E2E2E2E2E2E2E2E2E2E2E2E202B2B2B202A202A202A202A2A2A23232323DE
:2015E000232323232323232323232323202320232A2A2A2A232323230A00202320232023BA
:201600002023202320232A2A2A2A2023232323232A2A202B202B2E2E2E2E202E202E202EFE
:20162000202E202E2E2E2E2E202E2E2E202E202E2E2E2B2B202A202A2A2A2A2A202A202A8E
:201640002A2A232323232323232323232023202323232A2A2A2A20232023232323230A0048
:2016600020232023202323232323232320232023232323232323202A202B202B202B2E2EF0
:201680002E2E202E202E202E202E202E202E202E202E202E202E202B202B202B202B202B6B
:2016A0002B2B202A202A2A2A20232323232323232323202323232323232320232A2A23239F
:2016C000232323230A0020232A2A2023232323232323202320232323232320232B2B202BD2
:2016E0002B2B2B2B2B2B202B2E2E202E202E202E202E202E202E202E202E202E2E2E2E2ECB
:20170000202B202B202B2B2B2B2B202A202A20232323232323232323232323232323232335
:20172000202320232A2A202320230A002A2A2A2A2A2A2023232320232A2A2A2A2023232346
:201740002023202B2B2B202B2E2E2E2E202E202E202E202E20202020202E2020202E202EC0
:201760002E2E2E2E202B202B202B202B202B2B2B202A2A2A202323232323232323232323A5
:201780002323232323232023202320232A2A20230A002023202320232023202320232A2A27
:2017A0002A2A2A2A23232A2A202B202B202E202E2E2E202E202E2E2E2E2E2E2E202E202E0D
:2017C0002E2E2E2E202B202B2E2E202E202E2E2E2E2E202B2B2B2B2B202A202323232323FB
:2017E0002323232323232323232323232023202320232A2A20230A002023202323232323C9
:201800002A2A2A2A202320232A2A2023202A2E2E2E2E2E2E2E2E202E202E202E202E202EC3
:20182000202E202E2E2E2E2E202B2B2B2E2E202E202E202E2E2E2E2E202B2B2B2B2B2B2B68
:20184000202A232323232323232323232323232320232A2A2A2A2023202320230A00202353
:20186000202323232323232320232A2A2A2A2A2A20232B2B2E2E2B2B2B2B202E202E202E89
:20188000202E2E2E202E20202E2E2E2E2E2E202B202B202B202E202B2B2B2A2A2A2A202A3A
:2018A000202A2B2B2B2B202A232323232323232323232323232323232A2A2A2A202320238A
:2018C00020230A00232320232323232323232323202A2B2B202A2323202A202B202B2E2EAE
:2018E000202E202E2E2E2B2B2B2B2E2E2E2E202B2E2E2E2E2B2B2B2B2B2B2E2E202B2B2B8A
:20190000202A202A2B2B202A2B2B2B2B202A2023232323232323232323232323232323232A
:2019200023232323202320230A002323232320232323232323232A2A202A2A2A23232A2A5E
:20194000202B202E202B202B202020202B2B202B202E2E2E2B2B2E2E2E2E2B2B2B2B2E2E77
:20196000202B202E2E2E2E2E2E2E202B202B2B2B202A202A2023202323232023232323239F
:201980002323232323232023202320232A2A0A0023232323232323232323232320232A2A13
:2019A0002A2A23232A2A2E2E2E2E202B2E2E20202020202E202E202E2E2E202B2E2E2E2E11
:2019C0002B2B202A2B2B2B2B2E2E202E202E202E2E2E2E2E2B2B2B2B2B2B202320232023F2
:2019E0002A2A202320232023232320232A2A2B2B202A2A2A0A002323232323232323232391
:201A000023232323232323232323202A2E2E2E2E2E2E2E2E202E20202020202E202E202BF9
:201A20002E2E2E2E202B202B2B2B2B2B2B2B2B2B202B2E2E2E2E2E2E202B202B202B2B2B6A
:201A40002A2A20232323232323232323232323232A2A2A2A202A202A202A0A00232323232F
:201A600023232323232323232323232323232A2A202B2E2E2E2E202E202E202E2020202EAD
:201A8000202E2E2E2E2E202E2E2E202B202B2B2B2B2B2E2E2E2E202B202B202B202B2E2E14
:201AA0002E2E202B2B2B2A2A2023232323232323232323232323202A2B2B2B2B202A2A2A5A
:201AC0000A002323232323232323232323232323232323232023202B2E2E202E202E202EB2
:201AE000202E202E202E202E202E202E2E2E2E2E2E2E202B2B2B202A2B2B202E202E2E2EC5
:201B00002E2E2E2E2E2E2E2E202B2B2B202A2023232323232323232323232323202A2B2BE3
:201B2000202B202A23230A002323232323232323232323232323232323232023202B2E2E60
:201B4000202E202E2020202E202E202E202020202E2E202E202E202E2E2E202B202B2B2BB1
:201B6000202B2020202E2E2E2E2E2E2E202B202B2B2B202A202323232323232323232323A1
:201B80002323202A2B2B2B2B2A2A23230A00232323232323232323232323232323232323EF
:201BA00023232B2B202E202E202E202E202E202E2020202E202E202E202E202E202E202E53
:201BC0002B2B202B2E2E2B2B202E2020202E2E2E2E2E202B202B2B2B202A20232323232319
:201BE00023232323232323232023202A202A232323230A00232323232323232323232323BC
:201C000023232323232323232A2A202E202E202E202E202020202020202E202E202E2B2B20
:201C2000202B202E2E2E2B2B2B2B2E2E2B2B2E2E202E202E202E2E2E2E2E202B202B202A73
:201C40002023232323232323232323232323232323232323232323230A0023232323232363
:201C6000232323232323232323232323232320232E2E202E202E2020202020202020202EF1
:201C8000202E2E2E2E2E2E2E2E2E2E2E2E2E202B2B2B202B202B2E2E202E202E202E2E2EF5
:201CA000202B202B2B2B2023232323232323232323232323232323232323232323230A00E9
:201CC00023232323232323232323232323232323232320232323202B202E202E202020209E
:201CE00020202020202E202E202E2E2E2E2E2E2E2E2E2E2E202B202B202B202B202B2E2EDB
:201D0000202E202E2E2E202B202B2B2B202323232323232323232323232323232323232326
:201D2000232323230A00232323232323232323232323232323232323202323232B2B202E6A
:201D4000202E2020202020202020202E202E202E202E202E2E2E2E2E202E2E2E202B202BB7
:201D60002B2B202B202B2E2E202E2E2E202B202B2B2B20232323232323232323232323239E
:201D8000232323232323232323230A0023232323232323232323232323232323232323231F
:201DA0002323202A202E202E202020202020202E202E202E202E202E202E202E2E2E202E6B
:201DC0002E2E2E2E2E2E202B202B202B202B2E2E2E2E2E2E202B2B2B2023232323232323F9
:201DE000232323232323232323232323232323230A002323232323232323232323232323BF
:201E000023232323232323232A2A202E202E2020202E202E202E202E202E202E202E202E0A
:201E2000202E202E2E2E202B2B2B2B2B2B2B2B2B2E2E2E2E2E2E2E2E2E2E202B2B2B232354
:201E4000232323232323232323232323232323232323232323230A0023232323232323235E
:201E6000232323232323232323232323232320232E2E2020202E202E202E202E202E2E2EB7
:201E80002E2E202B202B202B202B2B2B2B2B202A202A202A202A202B202E2E2E2E2E2E2E39
:201EA0002E2E2B2B2323232323232323232323232323232323232323232323230A002323D8
:201EC00023232323232323232323202323232323232323232323202B2020202E202E202E8E
:201EE000202E2E2E2E2E202B202B2E2E202E202E2E2E2E2E202B202B2B2B2B2B202B202EBB
:201F0000202E202B202B2E2E2A2A232323232323232323232323232323232323232323232B
:201F200023230A002323232323232323232323232323232323232023202320232B2B202E6E
:201F4000202E202E202E202E202E202E202E202E202E2020202E2E2E2E2E2E2E202B202B8B
:201F60002B2B202B2E2E202E2E2E2E2E202B2323232323232323232323232323232323239D
:201F800023232323232323230A002323232323232323232323232323232323232323202320
:201FA000202320232E2E2020202E2020202E202E202E202E202E202E202E202E2E2E2E2E49
:201FC0002E2E202B202B202B202B202B2E2E2E2E202B2B2B20232323232323232323232334
:201FE00023232323232323232323232323230A0023232323232323232323232323232323BD
:2020000023232323232320232A2A202B202E2020202E202E202E202E202E202E202E202E0E
:20202000202E202E2E2E202B202B2E2E202B202B202B202B202B2B2B2A2A202A23232323BF
:2020400023232323232323232323232323232323232323230A00232323232323232323235C
:2020600020232A2A20232023202320232B2B2E2E2E2E2E2E202E202E202E202E202E202E7F
:20208000202E202E202E202E202E2E2E2E2E202B202B202B202B2B2B2B2B202B202A202A4B
:2020A000202A2A2A202323232323232323232323232323232323232323230A0023232323ED
:2020C000232323232023202320232A2A20232A2A202B2E2E2E2E2E2E2B2B2E2E202E202E13
:2020E000202E202E202E202E202E202E202E2E2E2E2E2E2E202B202B202B202B2B2B2B2BD2
:20210000202B202A202A2B2B202A202A2A2A2323232323232323232323232323232323232C
:202120000A00232323232323202320232023202320232A2A202B2E2E2E2E2E2E202B2B2B20
:20214000202E202E202E202E202E202E202E202E202E2E2E2E2E2E2E2E2E202B2E2E202B5F
:202160002B2B202B2E2E202B202A2B2B2B2B202A202A202A202A2A2A23232323232323238D
:202180002323232323230A00232323232323202320232023202320232B2B202E2E2E2E2EE6
:2021A0002E2E202B2B2B202E202E202E202E202E202E202E202E2E2E2E2E2E2E2E2E2E2EE6
:2021C0002E2E2E2E202B202B2E2E2E2E202B202A2B2B202B2B2B2B2B2B2B202A202A2A2AD9
:2021E0002323232323232323232323230A00232323232323232320232A2A202320232E2EA0
:20220000202E2E2E2E2E2E2E2B2B2B2B202E202E202E202E202E202E202E202E2E2E2E2E88
:202220002E2E2E2E2E2E2E2E2E2E2E2E202E202E202E202B2B2B202B202B2B2B2B2B2B2B53
:20224000202A202A202A202A2A2A20232323232323230A00232323232323232320232A2A34
:202260002023202A202E202E202E2E2E2E2E2B2B202A202E202E202E202E202E202E202E6D
:20228000202E202E2E2E2E2E2E2E2E2E2E2E2E2E202E202E202E202E202B202B202B202B16
:2022A000202B2B2B2B2B2B2B2B2B2B2B202A2A2A2A2A2A2A232323230A002323232320237A
:2022C00023232023202320232E2E202E202E202E202E2E2E2B2B202A202E202E202E202E27
:2022E0002020202E202E202E202E202E202E202E202E202E202E2020202E202E2E2E202B0F
:20230000202B202B202B202B202B202B2B2B2B2B202A2A2A202A202A202A202323230A0040
:20232000232320232023202320232023202A202E202E202E202E202E202E2B2B202A202EFC
:20234000202E202E202E202E202E202E202E202E202E202E202E202E202E202020202020C7
:20236000202E202B202B2E2E202B2E2E202B202B2E2E2B2B202A202A202A202A202A202379
:20238000202320230A0023232023202320232A2A2A2A202B202E202E202E202E202E202ED7
:2023A0002B2B202A202E20202020202E202E2020202E202E202E202E202E2020202020208D
:2023C00020202020202E2E2E202B2E2E2E2E202B2E2E202B202B2E2E202B2B2B2B2B202AF6
:0D23E000202A202A2A2A2A2A2A2A0A000056
:00000001FF
